{
  "contractName": "Staking",
  "abi": [
    {
      "inputs": [
        {
          "internalType": "address",
          "name": "ERC20Address",
          "type": "address"
        },
        {
          "internalType": "uint256",
          "name": "interestRatePerBlock",
          "type": "uint256"
        },
        {
          "internalType": "uint256",
          "name": "pausedSinceBlock",
          "type": "uint256"
        },
        {
          "internalType": "uint64",
          "name": "lockPeriodInBlocks",
          "type": "uint64"
        }
      ],
      "stateMutability": "nonpayable",
      "type": "constructor"
    },
    {
      "anonymous": false,
      "inputs": [
        {
          "indexed": true,
          "internalType": "address",
          "name": "stakerAddress",
          "type": "address"
        },
        {
          "indexed": true,
          "internalType": "uint256",
          "name": "sinceInterestRateIndex",
          "type": "uint256"
        },
        {
          "indexed": false,
          "internalType": "uint256",
          "name": "principal",
          "type": "uint256"
        },
        {
          "indexed": false,
          "internalType": "uint256",
          "name": "compoundInterest",
          "type": "uint256"
        }
      ],
      "name": "BindStake",
      "type": "event"
    },
    {
      "anonymous": false,
      "inputs": [],
      "name": "DeleteContract",
      "type": "event"
    },
    {
      "anonymous": false,
      "inputs": [
        {
          "indexed": false,
          "internalType": "address",
          "name": "targetAddress",
          "type": "address"
        },
        {
          "indexed": false,
          "internalType": "uint256",
          "name": "amount",
          "type": "uint256"
        }
      ],
      "name": "ExcessTokenWithdrawal",
      "type": "event"
    },
    {
      "anonymous": false,
      "inputs": [
        {
          "indexed": true,
          "internalType": "address",
          "name": "stakerAddress",
          "type": "address"
        },
        {
          "indexed": false,
          "internalType": "uint256",
          "name": "amount",
          "type": "uint256"
        }
      ],
      "name": "LiquidityDeposited",
      "type": "event"
    },
    {
      "anonymous": false,
      "inputs": [
        {
          "indexed": true,
          "internalType": "address",
          "name": "stakerAddress",
          "type": "address"
        },
        {
          "indexed": false,
          "internalType": "uint256",
          "name": "principal",
          "type": "uint256"
        },
        {
          "indexed": false,
          "internalType": "uint256",
          "name": "compoundInterest",
          "type": "uint256"
        }
      ],
      "name": "LiquidityUnlocked",
      "type": "event"
    },
    {
      "anonymous": false,
      "inputs": [
        {
          "indexed": false,
          "internalType": "uint64",
          "name": "numOfBlocks",
          "type": "uint64"
        }
      ],
      "name": "LockPeriod",
      "type": "event"
    },
    {
      "anonymous": false,
      "inputs": [
        {
          "indexed": true,
          "internalType": "uint256",
          "name": "index",
          "type": "uint256"
        },
        {
          "indexed": false,
          "internalType": "uint256",
          "name": "rate",
          "type": "uint256"
        }
      ],
      "name": "NewInterestRate",
      "type": "event"
    },
    {
      "anonymous": false,
      "inputs": [
        {
          "indexed": false,
          "internalType": "uint256",
          "name": "sinceBlock",
          "type": "uint256"
        }
      ],
      "name": "Pause",
      "type": "event"
    },
    {
      "anonymous": false,
      "inputs": [
        {
          "indexed": false,
          "internalType": "address",
          "name": "sender",
          "type": "address"
        },
        {
          "indexed": false,
          "internalType": "uint256",
          "name": "amount",
          "type": "uint256"
        }
      ],
      "name": "RewardsPoolTokenTopUp",
      "type": "event"
    },
    {
      "anonymous": false,
      "inputs": [
        {
          "indexed": false,
          "internalType": "address",
          "name": "targetAddress",
          "type": "address"
        },
        {
          "indexed": false,
          "internalType": "uint256",
          "name": "amount",
          "type": "uint256"
        }
      ],
      "name": "RewardsPoolTokenWithdrawal",
      "type": "event"
    },
    {
      "anonymous": false,
      "inputs": [
        {
          "indexed": true,
          "internalType": "bytes32",
          "name": "role",
          "type": "bytes32"
        },
        {
          "indexed": true,
          "internalType": "bytes32",
          "name": "previousAdminRole",
          "type": "bytes32"
        },
        {
          "indexed": true,
          "internalType": "bytes32",
          "name": "newAdminRole",
          "type": "bytes32"
        }
      ],
      "name": "RoleAdminChanged",
      "type": "event"
    },
    {
      "anonymous": false,
      "inputs": [
        {
          "indexed": true,
          "internalType": "bytes32",
          "name": "role",
          "type": "bytes32"
        },
        {
          "indexed": true,
          "internalType": "address",
          "name": "account",
          "type": "address"
        },
        {
          "indexed": true,
          "internalType": "address",
          "name": "sender",
          "type": "address"
        }
      ],
      "name": "RoleGranted",
      "type": "event"
    },
    {
      "anonymous": false,
      "inputs": [
        {
          "indexed": true,
          "internalType": "bytes32",
          "name": "role",
          "type": "bytes32"
        },
        {
          "indexed": true,
          "internalType": "address",
          "name": "account",
          "type": "address"
        },
        {
          "indexed": true,
          "internalType": "address",
          "name": "sender",
          "type": "address"
        }
      ],
      "name": "RoleRevoked",
      "type": "event"
    },
    {
      "anonymous": false,
      "inputs": [
        {
          "indexed": true,
          "internalType": "address",
          "name": "stakerAddress",
          "type": "address"
        },
        {
          "indexed": true,
          "internalType": "uint256",
          "name": "sinceInterestRateIndex",
          "type": "uint256"
        },
        {
          "indexed": false,
          "internalType": "uint256",
          "name": "principal",
          "type": "uint256"
        },
        {
          "indexed": false,
          "internalType": "uint256",
          "name": "compoundInterest",
          "type": "uint256"
        }
      ],
      "name": "StakeCompoundInterest",
      "type": "event"
    },
    {
      "anonymous": false,
      "inputs": [
        {
          "indexed": false,
          "internalType": "address",
          "name": "targetAddress",
          "type": "address"
        },
        {
          "indexed": false,
          "internalType": "uint256",
          "name": "amount",
          "type": "uint256"
        }
      ],
      "name": "TokenWithdrawal",
      "type": "event"
    },
    {
      "anonymous": false,
      "inputs": [
        {
          "indexed": true,
          "internalType": "address",
          "name": "stakerAddress",
          "type": "address"
        },
        {
          "indexed": true,
          "internalType": "uint256",
          "name": "liquidSinceBlock",
          "type": "uint256"
        },
        {
          "indexed": false,
          "internalType": "uint256",
          "name": "principal",
          "type": "uint256"
        },
        {
          "indexed": false,
          "internalType": "uint256",
          "name": "compoundInterest",
          "type": "uint256"
        }
      ],
      "name": "UnbindStake",
      "type": "event"
    },
    {
      "anonymous": false,
      "inputs": [
        {
          "indexed": true,
          "internalType": "address",
          "name": "stakerAddress",
          "type": "address"
        },
        {
          "indexed": false,
          "internalType": "uint256",
          "name": "principal",
          "type": "uint256"
        },
        {
          "indexed": false,
          "internalType": "uint256",
          "name": "compoundInterest",
          "type": "uint256"
        }
      ],
      "name": "Withdraw",
      "type": "event"
    },
    {
      "inputs": [],
      "name": "DEFAULT_ADMIN_ROLE",
      "outputs": [
        {
          "internalType": "bytes32",
          "name": "",
          "type": "bytes32"
        }
      ],
      "stateMutability": "view",
      "type": "function"
    },
    {
      "inputs": [],
      "name": "DELEGATE_ROLE",
      "outputs": [
        {
          "internalType": "bytes32",
          "name": "",
          "type": "bytes32"
        }
      ],
      "stateMutability": "view",
      "type": "function"
    },
    {
      "inputs": [],
      "name": "DELETE_PROTECTION_PERIOD",
      "outputs": [
        {
          "internalType": "uint256",
          "name": "",
          "type": "uint256"
        }
      ],
      "stateMutability": "view",
      "type": "function"
    },
    {
      "inputs": [],
      "name": "_accruedGlobalLiquidity",
      "outputs": [
        {
          "internalType": "uint256",
          "name": "principal",
          "type": "uint256"
        },
        {
          "internalType": "uint256",
          "name": "compoundInterest",
          "type": "uint256"
        }
      ],
      "stateMutability": "view",
      "type": "function"
    },
    {
      "inputs": [],
      "name": "_accruedGlobalLocked",
      "outputs": [
        {
          "internalType": "uint256",
          "name": "principal",
          "type": "uint256"
        },
        {
          "internalType": "uint256",
          "name": "compoundInterest",
          "type": "uint256"
        }
      ],
      "stateMutability": "view",
      "type": "function"
    },
    {
      "inputs": [],
      "name": "_accruedGlobalPrincipal",
      "outputs": [
        {
          "internalType": "uint256",
          "name": "",
          "type": "uint256"
        }
      ],
      "stateMutability": "view",
      "type": "function"
    },
    {
      "inputs": [],
      "name": "_earliestDelete",
      "outputs": [
        {
          "internalType": "uint256",
          "name": "",
          "type": "uint256"
        }
      ],
      "stateMutability": "view",
      "type": "function"
    },
    {
      "inputs": [
        {
          "internalType": "uint256",
          "name": "",
          "type": "uint256"
        }
      ],
      "name": "_interestRates",
      "outputs": [
        {
          "internalType": "uint256",
          "name": "sinceBlock",
          "type": "uint256"
        },
        {
          "internalType": "uint256",
          "name": "rate",
          "type": "uint256"
        }
      ],
      "stateMutability": "view",
      "type": "function"
    },
    {
      "inputs": [],
      "name": "_interestRatesNextIdx",
      "outputs": [
        {
          "internalType": "uint256",
          "name": "",
          "type": "uint256"
        }
      ],
      "stateMutability": "view",
      "type": "function"
    },
    {
      "inputs": [],
      "name": "_interestRatesStartIdx",
      "outputs": [
        {
          "internalType": "uint256",
          "name": "",
          "type": "uint256"
        }
      ],
      "stateMutability": "view",
      "type": "function"
    },
    {
      "inputs": [
        {
          "internalType": "address",
          "name": "",
          "type": "address"
        }
      ],
      "name": "_liquidity",
      "outputs": [
        {
          "internalType": "uint256",
          "name": "principal",
          "type": "uint256"
        },
        {
          "internalType": "uint256",
          "name": "compoundInterest",
          "type": "uint256"
        }
      ],
      "stateMutability": "view",
      "type": "function"
    },
    {
      "inputs": [],
      "name": "_lockPeriodInBlocks",
      "outputs": [
        {
          "internalType": "uint64",
          "name": "",
          "type": "uint64"
        }
      ],
      "stateMutability": "view",
      "type": "function"
    },
    {
      "inputs": [],
      "name": "_pausedSinceBlock",
      "outputs": [
        {
          "internalType": "uint256",
          "name": "",
          "type": "uint256"
        }
      ],
      "stateMutability": "view",
      "type": "function"
    },
    {
      "inputs": [],
      "name": "_rewardsPoolBalance",
      "outputs": [
        {
          "internalType": "uint256",
          "name": "",
          "type": "uint256"
        }
      ],
      "stateMutability": "view",
      "type": "function"
    },
    {
      "inputs": [],
      "name": "_token",
      "outputs": [
        {
          "internalType": "contract IERC20",
          "name": "",
          "type": "address"
        }
      ],
      "stateMutability": "view",
      "type": "function"
    },
    {
      "inputs": [
        {
          "internalType": "bytes32",
          "name": "role",
          "type": "bytes32"
        }
      ],
      "name": "getRoleAdmin",
      "outputs": [
        {
          "internalType": "bytes32",
          "name": "",
          "type": "bytes32"
        }
      ],
      "stateMutability": "view",
      "type": "function"
    },
    {
      "inputs": [
        {
          "internalType": "bytes32",
          "name": "role",
          "type": "bytes32"
        },
        {
          "internalType": "uint256",
          "name": "index",
          "type": "uint256"
        }
      ],
      "name": "getRoleMember",
      "outputs": [
        {
          "internalType": "address",
          "name": "",
          "type": "address"
        }
      ],
      "stateMutability": "view",
      "type": "function"
    },
    {
      "inputs": [
        {
          "internalType": "bytes32",
          "name": "role",
          "type": "bytes32"
        }
      ],
      "name": "getRoleMemberCount",
      "outputs": [
        {
          "internalType": "uint256",
          "name": "",
          "type": "uint256"
        }
      ],
      "stateMutability": "view",
      "type": "function"
    },
    {
      "inputs": [
        {
          "internalType": "bytes32",
          "name": "role",
          "type": "bytes32"
        },
        {
          "internalType": "address",
          "name": "account",
          "type": "address"
        }
      ],
      "name": "grantRole",
      "outputs": [],
      "stateMutability": "nonpayable",
      "type": "function"
    },
    {
      "inputs": [
        {
          "internalType": "bytes32",
          "name": "role",
          "type": "bytes32"
        },
        {
          "internalType": "address",
          "name": "account",
          "type": "address"
        }
      ],
      "name": "hasRole",
      "outputs": [
        {
          "internalType": "bool",
          "name": "",
          "type": "bool"
        }
      ],
      "stateMutability": "view",
      "type": "function"
    },
    {
      "inputs": [
        {
          "internalType": "bytes32",
          "name": "role",
          "type": "bytes32"
        },
        {
          "internalType": "address",
          "name": "account",
          "type": "address"
        }
      ],
      "name": "renounceRole",
      "outputs": [],
      "stateMutability": "nonpayable",
      "type": "function"
    },
    {
      "inputs": [
        {
          "internalType": "bytes32",
          "name": "role",
          "type": "bytes32"
        },
        {
          "internalType": "address",
          "name": "account",
          "type": "address"
        }
      ],
      "name": "revokeRole",
      "outputs": [],
      "stateMutability": "nonpayable",
      "type": "function"
    },
    {
      "inputs": [
        {
          "internalType": "uint256",
          "name": "rate",
          "type": "uint256"
        },
        {
          "internalType": "uint256",
          "name": "expirationBlock",
          "type": "uint256"
        }
      ],
      "name": "addInterestRate",
      "outputs": [],
      "stateMutability": "nonpayable",
      "type": "function"
    },
    {
      "inputs": [
        {
          "internalType": "uint256",
          "name": "amount",
          "type": "uint256"
        },
        {
          "internalType": "uint256",
          "name": "txExpirationBlock",
          "type": "uint256"
        }
      ],
      "name": "deposit",
      "outputs": [],
      "stateMutability": "nonpayable",
      "type": "function"
    },
    {
      "inputs": [
        {
          "internalType": "uint256",
          "name": "amount",
          "type": "uint256"
        },
        {
          "internalType": "uint256",
          "name": "txExpirationBlock",
          "type": "uint256"
        }
      ],
      "name": "withdraw",
      "outputs": [],
      "stateMutability": "nonpayable",
      "type": "function"
    },
    {
      "inputs": [
        {
          "internalType": "uint256",
          "name": "txExpirationBlock",
          "type": "uint256"
        }
      ],
      "name": "withdrawPrincipal",
      "outputs": [],
      "stateMutability": "nonpayable",
      "type": "function"
    },
    {
      "inputs": [
        {
          "internalType": "uint256",
          "name": "txExpirationBlock",
          "type": "uint256"
        }
      ],
      "name": "withdrawCompoundInterest",
      "outputs": [],
      "stateMutability": "nonpayable",
      "type": "function"
    },
    {
      "inputs": [
        {
          "internalType": "uint256",
          "name": "txExpirationBlock",
          "type": "uint256"
        }
      ],
      "name": "withdrawWholeLiquidity",
      "outputs": [],
      "stateMutability": "nonpayable",
      "type": "function"
    },
    {
      "inputs": [
        {
          "internalType": "uint256",
          "name": "amount",
          "type": "uint256"
        },
        {
          "internalType": "uint256",
          "name": "txExpirationBlock",
          "type": "uint256"
        }
      ],
      "name": "bindStake",
      "outputs": [],
      "stateMutability": "nonpayable",
      "type": "function"
    },
    {
      "inputs": [
        {
          "internalType": "uint256",
          "name": "amount",
          "type": "uint256"
        },
        {
          "internalType": "uint256",
          "name": "txExpirationBlock",
          "type": "uint256"
        }
      ],
      "name": "unbindStake",
      "outputs": [],
      "stateMutability": "nonpayable",
      "type": "function"
    },
    {
      "inputs": [],
      "name": "getRewardsPoolBalance",
      "outputs": [
        {
          "internalType": "uint256",
          "name": "",
          "type": "uint256"
        }
      ],
      "stateMutability": "view",
      "type": "function"
    },
    {
      "inputs": [],
      "name": "getEarliestDeleteBlock",
      "outputs": [
        {
          "internalType": "uint256",
          "name": "",
          "type": "uint256"
        }
      ],
      "stateMutability": "view",
      "type": "function"
    },
    {
      "inputs": [
        {
          "internalType": "address",
          "name": "forAddress",
          "type": "address"
        }
      ],
      "name": "getNumberOfLockedAssetsForUser",
      "outputs": [
        {
          "internalType": "uint256",
          "name": "length",
          "type": "uint256"
        }
      ],
      "stateMutability": "view",
      "type": "function"
    },
    {
      "inputs": [
        {
          "internalType": "address",
          "name": "forAddress",
          "type": "address"
        }
      ],
      "name": "getLockedAssetsAggregateForUser",
      "outputs": [
        {
          "internalType": "uint256",
          "name": "principal",
          "type": "uint256"
        },
        {
          "internalType": "uint256",
          "name": "compoundInterest",
          "type": "uint256"
        }
      ],
      "stateMutability": "view",
      "type": "function"
    },
    {
      "inputs": [
        {
          "internalType": "address",
          "name": "forAddress",
          "type": "address"
        }
      ],
      "name": "getLockedAssetsForUser",
      "outputs": [
        {
          "internalType": "uint256[]",
          "name": "principal",
          "type": "uint256[]"
        },
        {
          "internalType": "uint256[]",
          "name": "compoundInterest",
          "type": "uint256[]"
        },
        {
          "internalType": "uint256[]",
          "name": "liquidSinceBlock",
          "type": "uint256[]"
        }
      ],
      "stateMutability": "view",
      "type": "function"
    },
    {
      "inputs": [
        {
          "internalType": "address",
          "name": "forAddress",
          "type": "address"
        }
      ],
      "name": "getStakeForUser",
      "outputs": [
        {
          "internalType": "uint256",
          "name": "principal",
          "type": "uint256"
        },
        {
          "internalType": "uint256",
          "name": "compoundInterest",
          "type": "uint256"
        },
        {
          "internalType": "uint256",
          "name": "sinceBlock",
          "type": "uint256"
        },
        {
          "internalType": "uint256",
          "name": "sinceInterestRateIndex",
          "type": "uint256"
        }
      ],
      "stateMutability": "view",
      "type": "function"
    },
    {
      "inputs": [
        {
          "internalType": "uint256",
          "name": "amount",
          "type": "uint256"
        },
        {
          "internalType": "uint256",
          "name": "txExpirationBlock",
          "type": "uint256"
        }
      ],
      "name": "topUpRewardsPool",
      "outputs": [],
      "stateMutability": "nonpayable",
      "type": "function"
    },
    {
      "inputs": [
        {
          "internalType": "uint64",
          "name": "numOfBlocks",
          "type": "uint64"
        },
        {
          "internalType": "uint256",
          "name": "txExpirationBlock",
          "type": "uint256"
        }
      ],
      "name": "updateLockPeriod",
      "outputs": [],
      "stateMutability": "nonpayable",
      "type": "function"
    },
    {
      "inputs": [
        {
          "internalType": "uint256",
          "name": "blockNumber",
          "type": "uint256"
        },
        {
          "internalType": "uint256",
          "name": "txExpirationBlock",
          "type": "uint256"
        }
      ],
      "name": "pauseSince",
      "outputs": [],
      "stateMutability": "nonpayable",
      "type": "function"
    },
    {
      "inputs": [
        {
          "internalType": "uint256",
          "name": "amount",
          "type": "uint256"
        },
        {
          "internalType": "address payable",
          "name": "targetAddress",
          "type": "address"
        },
        {
          "internalType": "uint256",
          "name": "txExpirationBlock",
          "type": "uint256"
        }
      ],
      "name": "withdrawFromRewardsPool",
      "outputs": [],
      "stateMutability": "nonpayable",
      "type": "function"
    },
    {
      "inputs": [
        {
          "internalType": "address payable",
          "name": "targetAddress",
          "type": "address"
        },
        {
          "internalType": "uint256",
          "name": "txExpirationBlock",
          "type": "uint256"
        }
      ],
      "name": "withdrawExcessTokens",
      "outputs": [],
      "stateMutability": "nonpayable",
      "type": "function"
    },
    {
      "inputs": [
        {
          "internalType": "address payable",
          "name": "payoutAddress",
          "type": "address"
        },
        {
          "internalType": "uint256",
          "name": "txExpirationBlock",
          "type": "uint256"
        }
      ],
      "name": "deleteContract",
      "outputs": [],
      "stateMutability": "nonpayable",
      "type": "function"
    }
  ],
  "bytecode": "0x60806040523480156200001157600080fd5b506040516200391838038062003918833981810160405260808110156200003757600080fd5b5080516020820151604083015160609093015191929091620000646000336001600160e01b03620000ee16565b600180546001600160a01b0319166001600160a01b038616179055620000a56205a66d6200009162000107565b6200010b60201b620023d81790919060201c565b600255620000bc816001600160e01b036200016f16565b620000d0836001600160e01b03620001c316565b620000e4826001600160e01b036200025f16565b50505050620003d8565b6200010382826001600160e01b03620002c216565b5050565b4390565b60008282018381101562000166576040805162461bcd60e51b815260206004820152601b60248201527f536166654d6174683a206164646974696f6e206f766572666c6f770000000000604482015290519081900360640190fd5b90505b92915050565b600480546001600160401b0383166001600160401b0319909116811790915560408051918252517f6b24ea7c7a8ce7fd2e6a6cb675dbabcd38a90f83ddd581c4435610ce90456e8f9181900360200190a150565b600c546040805180820190915280620001e46001600160e01b036200010716565b815260209081018490526000838152600d8252604090208251815591810151600192830155600c5462000222929091620023d86200010b821b17901c565b600c5560408051838152905182917fbcd200f406c53d9438c6cdc2966a1e99c35f336588c95bc3639e539df21c2f53919081900360200190a25050565b6000620002746001600160e01b036200010716565b905080821062000285578162000287565b805b600381905560408051918252517f68b095021b1f40fe513109f513c66692f0b3219aee674a69f4efc57badb8201d9181900360200190a15050565b600082815260208181526040909120620002e79183906200243262000344821b17901c565b156200010357620003006001600160e01b036200036416565b6001600160a01b0316816001600160a01b0316837f2f8788117e7eff1d82e926ec794901d17c78024a50270940304540a733656f0d60405160405180910390a45050565b600062000166836001600160a01b0384166001600160e01b036200036816565b3390565b60006200037f83836001600160e01b03620003c016565b620003b75750815460018181018455600084815260208082209093018490558454848252828601909352604090209190915562000169565b50600062000169565b60009081526001919091016020526040902054151590565b61353080620003e86000396000f3fe608060405234801561001057600080fd5b506004361061025e5760003560e01c80639010d07c11610146578063c8984ab2116100c3578063d9d8e78311610087578063d9d8e783146107bf578063dca2aa5c146107c7578063e2bbb158146107e4578063ecd0c0c314610807578063f0895e521461080f578063f1209ef71461083c5761025e565b8063c8984ab214610749578063ca15c87314610751578063d547741f1461076e578063d8cd39991461079a578063d9b202c9146107b75761025e565b8063aa700ff21161010a578063aa700ff2146106ad578063adf55101146106ca578063ba92a4c5146106d2578063c0ba241b146106f5578063c30f75cf146106fd5761025e565b80639010d07c146105d457806391d14854146106135780639608df4b14610653578063a217fddf1461067f578063a8f1b4c4146106875761025e565b8063372646bb116101df57806353e052ac116101a357806353e052ac146103f35780635f208f341461041f578063658e28a41461052357806367ce50c01461054057806368bccfcf1461057f57806388cedd5e146105b15761025e565b8063372646bb1461037757806340e979031461037f5780634164b001146103a5578063441a3e70146103ad57806352885d8d146103d05761025e565b8063292911fb11610226578063292911fb146102ec5780632f2ff15d146102f457806332a1bd7014610320578063347908df1461032857806336568abe1461034b5761025e565b8063085313ec146102635780630c450f9d1461027d5780631338403914610285578063248a9ca3146102aa5780632514c50a146102c7575b600080fd5b61026b610844565b60408051918252519081900360200190f35b61026b61084b565b6102a86004803603604081101561029b57600080fd5b5080359060200135610851565b005b61026b600480360360208110156102c057600080fd5b503561091f565b6102cf610934565b6040805167ffffffffffffffff9092168252519081900360200190f35b61026b610944565b6102a86004803603604081101561030a57600080fd5b50803590602001356001600160a01b031661094a565b61026b6109b6565b6102a86004803603604081101561033e57600080fd5b50803590602001356109bc565b6102a86004803603604081101561036157600080fd5b50803590602001356001600160a01b0316610a85565b61026b610ae6565b61026b6004803603602081101561039557600080fd5b50356001600160a01b0316610aed565b61026b610b0b565b6102a8600480360360408110156103c357600080fd5b5080359060200135610b11565b6102a8600480360360408110156103e657600080fd5b5080359060200135610bf2565b6102a86004803603604081101561040957600080fd5b506001600160a01b03813516906020013561108b565b6104456004803603602081101561043557600080fd5b50356001600160a01b03166112ef565b60405180806020018060200180602001848103845287818151815260200191508051906020019060200280838360005b8381101561048d578181015183820152602001610475565b50505050905001848103835286818151815260200191508051906020019060200280838360005b838110156104cc5781810151838201526020016104b4565b50505050905001848103825285818151815260200191508051906020019060200280838360005b8381101561050b5781810151838201526020016104f3565b50505050905001965050505050505060405180910390f35b6102a86004803603602081101561053957600080fd5b5035611482565b6105666004803603602081101561055657600080fd5b50356001600160a01b031661155b565b6040805192835260208301919091528051918290030190f35b6102a86004803603606081101561059557600080fd5b508035906001600160a01b036020820135169060400135611574565b6102a8600480360360408110156105c757600080fd5b5080359060200135611886565b6105f7600480360360408110156105ea57600080fd5b5080359060200135611a15565b604080516001600160a01b039092168252519081900360200190f35b61063f6004803603604081101561062957600080fd5b50803590602001356001600160a01b0316611a3c565b604080519115158252519081900360200190f35b6102a86004803603604081101561066957600080fd5b506001600160a01b038135169060200135611a5a565b61026b611c8e565b6105666004803603602081101561069d57600080fd5b50356001600160a01b0316611c93565b610566600480360360208110156106c357600080fd5b5035611cb6565b61026b611ccf565b6102a8600480360360408110156106e857600080fd5b5080359060200135611cd5565b61026b611e49565b6107236004803603602081101561071357600080fd5b50356001600160a01b0316611e6e565b604080519485526020850193909352838301919091526060830152519081900360800190f35b610566611e9f565b61026b6004803603602081101561076757600080fd5b5035611ea8565b6102a86004803603604081101561078457600080fd5b50803590602001356001600160a01b0316611ebf565b6102a8600480360360208110156107b057600080fd5b5035611f18565b610566611ff2565b61026b611ffb565b6102a8600480360360208110156107dd57600080fd5b5035612001565b6102a8600480360360408110156107fa57600080fd5b50803590602001356120f2565b6105f76122fa565b6102a86004803603604081101561082557600080fd5b5067ffffffffffffffff8135169060200135612309565b61026b6123d2565b6002545b90565b60055481565b610859612447565b8061088b5750604080516c44454c45474154455f524f4c4560981b8152905190819003600d01902061088b9033611a3c565b6108c65760405162461bcd60e51b81526004018080602001828103825260248152602001806134186024913960400191505060405180910390fd5b80806108d0612458565b1115610911576040805162461bcd60e51b8152602060048201526013602482015260008051602061346c833981519152604482015290519081900360640190fd5b61091a8361245c565b505050565b60009081526020819052604090206002015490565b60045467ffffffffffffffff1681565b60065481565b60008281526020819052604090206002015461096d906109686124e5565b611a3c565b6109a85760405162461bcd60e51b815260040180806020018281038252602f8152602001806133e9602f913960400191505060405180910390fd5b6109b282826124e9565b5050565b60025481565b80806109c6612458565b1115610a07576040805162461bcd60e51b8152602060048201526013602482015260008051602061346c833981519152604482015290519081900360640190fd5b610a0f612447565b80610a415750604080516c44454c45474154455f524f4c4560981b8152905190819003600d019020610a419033611a3c565b610a7c5760405162461bcd60e51b81526004018080602001828103825260248152602001806134186024913960400191505060405180910390fd5b61091a83612558565b610a8d6124e5565b6001600160a01b0316816001600160a01b031614610adc5760405162461bcd60e51b815260040180806020018281038252602f8152602001806134cc602f913960400191505060405180910390fd5b6109b282826125ae565b6205a66d81565b6001600160a01b03166000908152600f602052604090206002015490565b600c5481565b8080610b1b612458565b1115610b5c576040805162461bcd60e51b8152602060048201526013602482015260008051602061346c833981519152604482015290519081900360640190fd5b610b64612458565b60035411610ba7576040805162461bcd60e51b815260206004820152601860248201526000805160206134ac833981519152604482015290519081900360640190fd5b336000610bb2612458565b90506000610bc0838361261d565b50915050610bcc61333e565b610bdc828863ffffffff61287b16565b9050610be98482896128f4565b50505050505050565b8080610bfc612458565b1115610c3d576040805162461bcd60e51b8152602060048201526013602482015260008051602061346c833981519152604482015290519081900360640190fd5b610c45612458565b60035411610c88576040805162461bcd60e51b815260206004820152601860248201526000805160206134ac833981519152604482015290519081900360640190fd5b6000610c92612458565b9050336000610ca18284612aa1565b90506000610cb182600201612c1a565b9050610cbb61333e565b8715610ebd5781881115610d16576040805162461bcd60e51b815260206004820152601b60248201527f416d6f756e7420697320686967686572207468616e207374616b650000000000604482015290519081900360640190fd5b60045467ffffffffffffffff16610dee576001600160a01b0384166000908152601060205260409020610d549060028501908a63ffffffff612c3416565b9050610d6760078263ffffffff612c5916565b80516020808301516040805193845291830152805187926001600160a01b0388169260008051602061348c83398151915292918290030190a38051602080830151604080519384529183015280516001600160a01b038716927fa219ed960eef85ed4cd072d3a9f240ea94727c0d6fb15e9a91a8cd4bf18ee3a692908290030190a2610eb8565b6001600160a01b0384166000908152600f6020908152604082206002810180546001810182559084529190922060045460039092020190610e4090889067ffffffffffffffff1663ffffffff6123d816565b8155610e5960028601600183018c63ffffffff612c3416565b9250610e6c60098463ffffffff612c5916565b610e7c828463ffffffff612c5916565b80548351602080860151604080519384529183015280516001600160a01b038a169260008051602061348c83398151915292908290030190a350505b611081565b81610ecc57505050505061091a565b5060408051808201909152600283018054825260038401805460208401526000918290555560045467ffffffffffffffff16610fc2576001600160a01b0384166000908152601060205260409020610f2a908263ffffffff612c5916565b610f3b60078263ffffffff612c5916565b80516020808301516040805193845291830152805187926001600160a01b0388169260008051602061348c83398151915292918290030190a38051602080830151604080519384529183015280516001600160a01b038716927fa219ed960eef85ed4cd072d3a9f240ea94727c0d6fb15e9a91a8cd4bf18ee3a692908290030190a2611081565b6001600160a01b0384166000908152600f602090815260408220600281018054600181018255908452919092206004546003909202019061101490889067ffffffffffffffff1663ffffffff6123d816565b8155825160018201556020830151600282015561103860098463ffffffff612c5916565b611048828463ffffffff612c5916565b8054600182015460028301546040805192835260208301919091528051339260008051602061348c83398151915292908290030190a350505b5050505050505050565b8080611095612458565b11156110d6576040805162461bcd60e51b8152602060048201526013602482015260008051602061346c833981519152604482015290519081900360640190fd5b6110de612447565b611128576040805162461bcd60e51b815260206004820152601660248201527521b0b63632b91034b9903737ba1030b71037bbb732b960511b604482015290519081900360640190fd5b600154604080516370a0823160e01b815230600482015290516000926001600160a01b0316916370a08231916024808301926020929190829003018186803b15801561117357600080fd5b505afa158015611187573d6000803e3d6000fd5b505050506040513d602081101561119d57600080fd5b50516005546006549192506000916111ba9163ffffffff6123d816565b905060006111ce838363ffffffff612c9316565b6001546040805163a9059cbb60e01b81526001600160a01b038a8116600483015260248201859052915193945091169163a9059cbb916044808201926020929091908290030181600087803b15801561122657600080fd5b505af115801561123a573d6000803e3d6000fd5b505050506040513d602081101561125057600080fd5b50516112a3576040805162461bcd60e51b815260206004820181905260248201527f4e6f7420656e6f7567682066756e6473206f6e20636f6e74722e20616464722e604482015290519081900360640190fd5b604080516001600160a01b03881681526020810183905281517f7f66376a5ef2f39ab4ee2ee6e400606624e66929dba5d82df5b14dd0070a8a87929181900390910190a1505050505050565b6001600160a01b0381166000908152600f60205260409020600201805460609182918291908015611479578067ffffffffffffffff8111801561133157600080fd5b5060405190808252806020026020018201604052801561135b578160200160208202803683370190505b5094508067ffffffffffffffff8111801561137557600080fd5b5060405190808252806020026020018201604052801561139f578160200160208202803683370190505b5093508067ffffffffffffffff811180156113b957600080fd5b506040519080825280602002602001820160405280156113e3578160200160208202803683370190505b50925060005b818110156114775760008382815481106113ff57fe5b906000526020600020906003020190506000816001019050806000015488848151811061142857fe5b602002602001018181525050806001015487848151811061144557fe5b602002602001018181525050816000015486848151811061146257fe5b602090810291909101015250506001016113e9565b505b50509193909250565b808061148c612458565b11156114cd576040805162461bcd60e51b8152602060048201526013602482015260008051602061346c833981519152604482015290519081900360640190fd5b6114d5612458565b60035411611518576040805162461bcd60e51b815260206004820152601860248201526000805160206134ac833981519152604482015290519081900360640190fd5b336000611523612458565b90506000611531838361261d565b5091505061153d61333e565b81548082526000835561155390859083906128f4565b505050505050565b6010602052600090815260409020805460019091015482565b808061157e612458565b11156115bf576040805162461bcd60e51b8152602060048201526013602482015260008051602061346c833981519152604482015290519081900360640190fd5b6115c7612447565b611611576040805162461bcd60e51b815260206004820152601660248201527521b0b63632b91034b9903737ba1030b71037bbb732b960511b604482015290519081900360640190fd5b83611620576005549350611677565b600554841115611677576040805162461bcd60e51b815260206004820152601f60248201527f416d6f756e7420686967686572207468616e207265776172647320706f6f6c00604482015290519081900360640190fd5b600154604080516370a0823160e01b815230600482015290516000926001600160a01b0316916370a08231916024808301926020929190829003018186803b1580156116c257600080fd5b505afa1580156116d6573d6000803e3d6000fd5b505050506040513d60208110156116ec57600080fd5b5051600654909150600090611707908763ffffffff6123d816565b90508181111561175e576040805162461bcd60e51b815260206004820152601760248201527f436f6e747261637420696e636f6e73697374656e63792e000000000000000000604482015290519081900360640190fd5b6001546040805163a9059cbb60e01b81526001600160a01b038881166004830152602482018a90529151919092169163a9059cbb9160448083019260209291908290030181600087803b1580156117b457600080fd5b505af11580156117c8573d6000803e3d6000fd5b505050506040513d60208110156117de57600080fd5b5051611831576040805162461bcd60e51b815260206004820181905260248201527f4e6f7420656e6f7567682066756e6473206f6e20636f6e74722e20616464722e604482015290519081900360640190fd5b600580548790039055604080516001600160a01b03871681526020810188905281517f8a652d32cc9efc0a4f0fc3708c9fb81d5a924a7b9af2a37c46e9e4910d0dc325929181900390910190a1505050505050565b8080611890612458565b11156118d1576040805162461bcd60e51b8152602060048201526013602482015260008051602061346c833981519152604482015290519081900360640190fd5b6118d9612458565b6003541161191c576040805162461bcd60e51b815260206004820152601860248201526000805160206134ac833981519152604482015290519081900360640190fd5b8261196e576040805162461bcd60e51b815260206004820152601f60248201527f416d6f756e74206d75737420626520686967686572207468616e207a65726f00604482015290519081900360640190fd5b6000611978612458565b90506000611986338361261d565b5091505060006119963384612aa1565b90506119a061333e565b6119b483600284018963ffffffff612cd516565b90506119c760078263ffffffff612ce716565b600182015481516020808401516040805193845291830152805133927f0fb741c5ad2cad8215be7b4cab4e3f202f907d4540668ebf954f8e742efd89cf92908290030190a350505050505050565b6000828152602081905260408120611a33908363ffffffff612d1516565b90505b92915050565b6000828152602081905260408120611a33908363ffffffff612d2116565b8080611a64612458565b1115611aa5576040805162461bcd60e51b8152602060048201526013602482015260008051602061346c833981519152604482015290519081900360640190fd5b611aad612447565b611af7576040805162461bcd60e51b815260206004820152601660248201527521b0b63632b91034b9903737ba1030b71037bbb732b960511b604482015290519081900360640190fd5b611aff612458565b6002541015611b55576040805162461bcd60e51b815260206004820152601b60248201527f4561726c696573742064656c657465206e6f7420726561636865640000000000604482015290519081900360640190fd5b600154604080516370a0823160e01b815230600482015290516000926001600160a01b0316916370a08231916024808301926020929190829003018186803b158015611ba057600080fd5b505afa158015611bb4573d6000803e3d6000fd5b505050506040513d6020811015611bca57600080fd5b50516001546040805163a9059cbb60e01b81526001600160a01b03888116600483015260248201859052915193945091169163a9059cbb916044808201926020929091908290030181600087803b158015611c2457600080fd5b505af1158015611c38573d6000803e3d6000fd5b505050506040513d6020811015611c4e57600080fd5b5051611c5957600080fd5b6040517fe4dedc7f698868c432fb679313d1381b06601dfb7174d9b18b2e35378b67633390600090a1836001600160a01b0316ff5b600081565b6001600160a01b03166000908152600f6020526040902080546001909101549091565b600d602052600090815260409020805460019091015482565b60055490565b8080611cdf612458565b1115611d20576040805162461bcd60e51b8152602060048201526013602482015260008051602061346c833981519152604482015290519081900360640190fd5b82611d2a5761091a565b600154604080516323b872dd60e01b81523360048201523060248201526044810186905290516001600160a01b03909216916323b872dd916064808201926020929091908290030181600087803b158015611d8457600080fd5b505af1158015611d98573d6000803e3d6000fd5b505050506040513d6020811015611dae57600080fd5b5051611df3576040805162461bcd60e51b815260206004820152600f60248201526e151c985b9cd9995c8819985a5b1959608a1b604482015290519081900360640190fd5b600554611e06908463ffffffff6123d816565b600555604080513381526020810185905281517fb562e06b275d420e5848bb9083041a1c68466a478df92491b473ce99a4c68f68929181900390910190a1505050565b604080516c44454c45474154455f524f4c4560981b8152905190819003600d01902081565b6001600160a01b03166000908152600e60205260409020600281015460038201548254600190930154919390929190565b60075460085482565b6000818152602081905260408120611a3690612d36565b600082815260208190526040902060020154611edd906109686124e5565b610adc5760405162461bcd60e51b815260040180806020018281038252603081526020018061343c6030913960400191505060405180910390fd5b8080611f22612458565b1115611f63576040805162461bcd60e51b8152602060048201526013602482015260008051602061346c833981519152604482015290519081900360640190fd5b611f6b612458565b60035411611fae576040805162461bcd60e51b815260206004820152601860248201526000805160206134ac833981519152604482015290519081900360640190fd5b336000611fb9612458565b90506000611fc7838361261d565b50915050611fd361333e565b60018201805460208301819052600090915561155390859083906128f4565b600954600a5482565b600b5481565b808061200b612458565b111561204c576040805162461bcd60e51b8152602060048201526013602482015260008051602061346c833981519152604482015290519081900360640190fd5b612054612458565b60035411612097576040805162461bcd60e51b815260206004820152601860248201526000805160206134ac833981519152604482015290519081900360640190fd5b3360006120a2612458565b905060006120b0838361261d565b506040805180820190915281548152600182015460208201529092506120e1915084906120dc84612c1a565b6128f4565b600060018201819055905550505050565b80806120fc612458565b111561213d576040805162461bcd60e51b8152602060048201526013602482015260008051602061346c833981519152604482015290519081900360640190fd5b612145612458565b60035411612188576040805162461bcd60e51b815260206004820152601860248201526000805160206134ac833981519152604482015290519081900360640190fd5b82158015906122bd57600154604080516323b872dd60e01b81523360048201523060248201526044810187905290516001600160a01b03909216916323b872dd916064808201926020929091908290030181600087803b1580156121eb57600080fd5b505af11580156121ff573d6000803e3d6000fd5b505050506040513d602081101561221557600080fd5b505161225a576040805162461bcd60e51b815260206004820152600f60248201526e151c985b9cd9995c8819985a5b1959608a1b604482015290519081900360640190fd5b60065461226d908563ffffffff6123d816565b600655600754612283908563ffffffff6123d816565b60075560408051858152905133917f7ff07ce9a287649537e4b012e45cf012d90228b12e2b56bb03515a6b5436fcdf919081900360200190a25b60006122c7612458565b905060006122d5338361261d565b5091505082156115535780546122f1908763ffffffff6123d816565b90555050505050565b6001546001600160a01b031681565b8080612313612458565b1115612354576040805162461bcd60e51b8152602060048201526013602482015260008051602061346c833981519152604482015290519081900360640190fd5b61235c612447565b8061238e5750604080516c44454c45474154455f524f4c4560981b8152905190819003600d01902061238e9033611a3c565b6123c95760405162461bcd60e51b81526004018080602001828103825260248152602001806134186024913960400191505060405180910390fd5b61091a83612d41565b60035481565b600082820183811015611a33576040805162461bcd60e51b815260206004820152601b60248201527f536166654d6174683a206164646974696f6e206f766572666c6f770000000000604482015290519081900360640190fd5b6000611a33836001600160a01b038416612d97565b60006124538133611a3c565b905090565b4390565b600c546040805180820190915280612472612458565b815260209081018490526000838152600d82526040902082518155910151600191820155600c546124a89163ffffffff6123d816565b600c5560408051838152905182917fbcd200f406c53d9438c6cdc2966a1e99c35f336588c95bc3639e539df21c2f53919081900360200190a25050565b3390565b6000828152602081905260409020612507908263ffffffff61243216565b156109b2576125146124e5565b6001600160a01b0316816001600160a01b0316837f2f8788117e7eff1d82e926ec794901d17c78024a50270940304540a733656f0d60405160405180910390a45050565b6000612562612458565b90508082106125715781612573565b805b600381905560408051918252517f68b095021b1f40fe513109f513c66692f0b3219aee674a69f4efc57badb8201d9181900360200190a15050565b60008281526020819052604090206125cc908263ffffffff612de116565b156109b2576125d96124e5565b6001600160a01b0316816001600160a01b0316837ff6391f5c32d9c69d2a47ea670b442974b53935d1edc7fd64eb21e047a839171b60405160405180910390a45050565b61262561333e565b6001600160a01b0383166000908152600f6020908152604080832060109092528220919060028101825b815481101561278c57612660613358565b82828154811061266c57fe5b600091825260209182902060408051808201825260039093029091018054835281518083019092526001810154825260020154818401529181019190915280519091508810156126bf5750600101612787565b60208101515187516126d69163ffffffff6123d816565b8752602080820151810151908801516126f49163ffffffff6123d816565b60208801528254600019018281146127555783818154811061271257fe5b906000526020600020906003020184848154811061272c57fe5b600091825260209091208254600390920201908155600180830154908201556002918201549101555b8380548061275f57fe5b6000828152602081206003600019909301928302018181556001810182905560020155905550505b61264f565b5080546127c6576001600160a01b0387166000908152600f6020526040812081815560018101829055906127c36002830182613377565b50505b84511515806127d85750602085015115155b92508215612872578451602080870151604080519384529183015280516001600160a01b038a16927fa219ed960eef85ed4cd072d3a9f240ea94727c0d6fb15e9a91a8cd4bf18ee3a692908290030190a261283a60098663ffffffff612ce716565b80541561285157612851828663ffffffff612ce716565b61286260078663ffffffff612c5916565b612872848663ffffffff612c5916565b50509250925092565b61288361333e565b818360010154106128b45760018301546128a3908363ffffffff612c9316565b600184015560208101829052611a36565b60018301546128ca90839063ffffffff612c9316565b80825283546128de9163ffffffff612c9316565b8355600190920180546020840152600090555090565b801561091a5781602001516005541015612955576040805162461bcd60e51b815260206004820181905260248201527f4e6f7420656e6f7567682066756e647320696e207265776172647320706f6f6c604482015290519081900360640190fd5b6001546040805163a9059cbb60e01b81526001600160a01b038681166004830152602482018590529151919092169163a9059cbb9160448083019260209291908290030181600087803b1580156129ab57600080fd5b505af11580156129bf573d6000803e3d6000fd5b505050506040513d60208110156129d557600080fd5b5051612a1a576040805162461bcd60e51b815260206004820152600f60248201526e151c985b9cd9995c8819985a5b1959608a1b604482015290519081900360640190fd5b6020820151600554612a319163ffffffff612c9316565b6005558151600654612a489163ffffffff612c9316565b600655612a5c60078363ffffffff612ce716565b81516020808401516040805193845291830152805133927ff279e6a1f5e320cca91135676d9cb6e44ca8a08c0b88342bcdb1144f6511b56892908290030190a2505050565b6001600160a01b0382166000908152600e6020526040812090612ac660028301612c1a565b90508015612ba557815460018301545b600c54811015612b87576000818152600d602052604090208054831015612b44576040805162461bcd60e51b815260206004820152601860248201527f73696e6365426c6f636b20696e636f6e73697374656e63790000000000000000604482015290519081900360640190fd5b600c5486906001840190811015612b67576000818152600d602052604090205491505b612b78868460010154878503612df6565b95509093505050600101612ad6565b506002830154612b9e90839063ffffffff612c9316565b6003840155505b828255600c54612bb6576000612bbd565b6001600c54035b600183018190556002830154600384015460408051928352602083019190915280516001600160a01b038816927f6b6b43cdaf8f2ae06bdc6f6be433bb374b703ce8c88db4adce9dd8aefe44fe6d92908290030190a35092915050565b60018101548154600091611a36919063ffffffff6123d816565b612c3c61333e565b612c46848361287b565b9050612c528382612c59565b9392505050565b80518254612c6c9163ffffffff6123d816565b825560208101516001830154612c879163ffffffff6123d816565b82600101819055505050565b6000611a3383836040518060400160405280601e81526020017f536166654d6174683a207375627472616374696f6e206f766572666c6f770000815250612e36565b612cdd61333e565b612c468483612ecd565b80518254612cfa9163ffffffff612c9316565b825560208101516001830154612c879163ffffffff612c9316565b6000611a338383612f39565b6000611a33836001600160a01b038416612f9d565b6000611a3682612fb5565b6004805467ffffffffffffffff831667ffffffffffffffff19909116811790915560408051918252517f6b24ea7c7a8ce7fd2e6a6cb675dbabcd38a90f83ddd581c4435610ce90456e8f9181900360200190a150565b6000612da38383612f9d565b612dd957508154600181810184556000848152602080822090930184905584548482528286019093526040902091909155611a36565b506000611a36565b6000611a33836001600160a01b038416612fb9565b6000612e2e612e28612e22612e0b600161307f565b612e1d87670de0b6b3a764000061309d565b6130d4565b84613108565b85613156565b949350505050565b60008184841115612ec55760405162461bcd60e51b81526004018080602001828103825283818151815260200191508051906020019080838360005b83811015612e8a578181015183820152602001612e72565b50505050905090810190601f168015612eb75780820380516001836020036101000a031916815260200191505b509250505060405180910390fd5b505050900390565b612ed561333e565b82548211612ef9578254612eef908363ffffffff612c9316565b8355818152611a36565b8254612f0c90839063ffffffff612c9316565b602082018190526001840154612f279163ffffffff612c9316565b60018401558254815260009092555090565b81546000908210612f7b5760405162461bcd60e51b81526004018080602001828103825260228152602001806133c76022913960400191505060405180910390fd5b826000018281548110612f8a57fe5b9060005260206000200154905092915050565b60009081526001919091016020526040902054151590565b5490565b600081815260018301602052604081205480156130755783546000198083019190810190600090879083908110612fec57fe5b906000526020600020015490508087600001848154811061300957fe5b60009182526020808320909101929092558281526001898101909252604090209084019055865487908061303957fe5b60019003818190600052602060002001600090559055866001016000878152602001908152602001600020600090556001945050505050611a36565b6000915050611a36565b6000677fffffffffffffff82111561309657600080fd5b5060401b90565b6000816130a957600080fd5b60006130b584846131be565b905060016001607f1b036001600160801b0382161115611a3357600080fd5b6000600f83810b9083900b0160016001607f1b031981128015906130ff575060016001607f1b038113155b611a3357600080fd5b6000613114600161307f565b90505b8115611a3657600182161561313d576131308184613308565b9050600182039150613151565b6131478384613308565b9250600182901c91505b613117565b60008161316557506000611a36565b600083600f0b121561317657600080fd5b600f83900b6001600160801b038316810260401c90608084901c026001600160c01b038111156131a557600080fd5b60401b81198111156131b657600080fd5b019392505050565b6000816131ca57600080fd5b60006001600160c01b0384116131ef5782604085901b816131e757fe5b0490506132f4565b60c084811c6401000000008110613208576020918201911c5b62010000811061321a576010918201911c5b610100811061322b576008918201911c5b6010811061323b576004918201911c5b6004811061324b576002918201911c5b6002811061325a576001820191505b60bf820360018603901c6001018260ff0387901b8161327557fe5b0492506001600160801b0383111561328c57600080fd5b608085901c83026001600160801b038616840260c088901c604089901b828110156132b8576001820391505b608084901b929003828110156132cf576001820391505b829003608084901c82146132df57fe5b8881816132e857fe5b04870196505050505050505b6001600160801b03811115611a3357600080fd5b6000600f83810b9083900b0260401d60016001607f1b031981128015906130ff575060016001607f1b03811315611a3357600080fd5b604051806040016040528060008152602001600081525090565b60405180604001604052806000815260200161337261333e565b905290565b5080546000825560030290600052602060002090810190613398919061339b565b50565b61084891905b808211156133c25760008082556001820181905560028201556003016133a1565b509056fe456e756d657261626c655365743a20696e646578206f7574206f6620626f756e6473416363657373436f6e74726f6c3a2073656e646572206d75737420626520616e2061646d696e20746f206772616e7443616c6c6572206973206e656974686572206f776e6572206e6f722064656c6567617465416363657373436f6e74726f6c3a2073656e646572206d75737420626520616e2061646d696e20746f207265766f6b655472616e73616374696f6e2065787069726564000000000000000000000000005bfe1e16d75ca1fa001989652cd88c5b8ee8a59b5df6df99836337def4d1c82d436f6e747261637420686173206265656e207061757365640000000000000000416363657373436f6e74726f6c3a2063616e206f6e6c792072656e6f756e636520726f6c657320666f722073656c66a26469706673582212205436678265352631f897e2cef39869cf23c267c4a2f500784a8480a5ff10f77664736f6c63430006080033",
  "immutableReferences": {},
  "source": "// SPDX-License-Identifier:Apache-2.0\n//------------------------------------------------------------------------------\n//\n//   Copyright 2020 Fetch.AI Limited\n//\n//   Licensed under the Apache License, Version 2.0 (the \"License\");\n//   you may not use this file except in compliance with the License.\n//   You may obtain a copy of the License at\n//\n//       http://www.apache.org/licenses/LICENSE-2.0\n//\n//   Unless required by applicable law or agreed to in writing, software\n//   distributed under the License is distributed on an \"AS IS\" BASIS,\n//   WITHOUT WARRANTIES OR CONDITIONS OF ANY KIND, either express or implied.\n//   See the License for the specific language governing permissions and\n//   limitations under the License.\n//\n//------------------------------------------------------------------------------\n\npragma solidity ^0.6.0;\n\nimport \"../openzeppelin/contracts/token/ERC20/IERC20.sol\";\nimport \"../openzeppelin/contracts/access/AccessControl.sol\";\nimport \"./Finance.sol\";\n\n\n// [Canonical ERC20-FET] = 10**(-18)x[ECR20-FET]\ncontract Staking is AccessControl {\n    using SafeMath for uint256;\n    using AssetLib for AssetLib.Asset;\n\n    struct InterestRatePerBlock {\n        uint256 sinceBlock;\n        // NOTE(pb): To simplify, interest rate value can *not* be negative\n        uint256 rate; // Signed interest rate in [10**18] units => real_rate = rate / 10**18.\n        //// Number of users who bound stake while this particular interest rate was still in effect.\n        //// This enables to identify when we can delete interest rates which are no more used by anyone\n        //// (continuously from the beginning).\n        //uint256 numberOfRegisteredUsers;\n    }\n\n    struct Stake {\n        uint256 sinceBlock;\n        uint256 sinceInterestRateIndex;\n        AssetLib.Asset asset;\n    }\n\n    struct LockedAsset {\n        uint256 liquidSinceBlock;\n        AssetLib.Asset asset;\n    }\n\n    struct Locked {\n        AssetLib.Asset aggregate;\n        LockedAsset[] assets;\n    }\n\n    // *******    EVENTS    ********\n    event BindStake(\n          address indexed stakerAddress\n        , uint256 indexed sinceInterestRateIndex\n        , uint256 principal\n        , uint256 compoundInterest\n    );\n\n    /**\n     * @dev This event is triggered exclusivelly to recalculate the compount interest of ALREADY staked asset\n     *      for the poriod since it was calculated the last time. This means this event does *NOT* include *YET*\n     *      any added (resp. removed) asset user is currently binding (resp. unbinding).\n     *      The main motivation for this event is to give listener opportunity to get feedback what is the \n     *      user's staked asset value with compound interrest recalculated to *CURRENT* block *BEFORE* user's\n     *      action (binding resp. unbinding) affects user's staked asset value.\n     */\n    event StakeCompoundInterest(\n          address indexed stakerAddress\n        , uint256 indexed sinceInterestRateIndex\n        , uint256 principal // = previous_principal\n        , uint256 compoundInterest // = previous_principal * (pow(1+interest, _getBlockNumber()-since_block) - 1)\n    );\n\n    event LiquidityDeposited(\n          address indexed stakerAddress\n        , uint256 amount\n    );\n\n    event LiquidityUnlocked(\n          address indexed stakerAddress\n        , uint256 principal\n        , uint256 compoundInterest\n    );\n\n    event UnbindStake(\n          address indexed stakerAddress\n        , uint256 indexed liquidSinceBlock\n        , uint256 principal\n        , uint256 compoundInterest\n    );\n\n    event NewInterestRate(\n          uint256 indexed index\n        , uint256 rate // Signed interest rate in [10**18] units => real_rate = rate / 10**18\n    );\n\n    event Withdraw(\n          address indexed stakerAddress\n        , uint256 principal\n        , uint256 compoundInterest\n    );\n\n    event LockPeriod(uint64 numOfBlocks);\n    event Pause(uint256 sinceBlock);\n    event TokenWithdrawal(address targetAddress, uint256 amount);\n    event ExcessTokenWithdrawal(address targetAddress, uint256 amount);\n    event RewardsPoolTokenTopUp(address sender, uint256 amount);\n    event RewardsPoolTokenWithdrawal(address targetAddress, uint256 amount);\n    event DeleteContract();\n\n\n    bytes32 public constant DELEGATE_ROLE = keccak256(\"DELEGATE_ROLE\");\n    uint256 public constant DELETE_PROTECTION_PERIOD = 370285;// 60*24*60*60[s] / (14[s/block]) = 370285[block];\n\n    IERC20 public _token;\n\n    // NOTE(pb): This needs to be either completely replaced by multisig concept,\n    //           or at least joined with multisig.\n    //           This contract does not have, by-design on conceptual level, any clearly defined repeating\n    //           life-cycle behaviour (for instance: `initialise -> staking-period -> locked-period` cycle\n    //           with clear start & end of each life-cycle. Life-cycle of this contract is single monolithic\n    //           period `creation -> delete-contract`, where there is no clear place where to `update` the\n    //           earliest deletion block value, thus it would need to be set once at the contract creation\n    //           point what completely defeats the protection by time delay.\n    uint256 public _earliestDelete;\n    \n    uint256 public _pausedSinceBlock;\n    uint64 public _lockPeriodInBlocks;\n\n    // Represents amount of reward funds which are dedicated to cover accrued compound interest during user withdrawals.\n    uint256 public _rewardsPoolBalance;\n    // Accumulated global value of all principals (from all users) currently held in this contract (liquid, bound and locked).\n    uint256 public _accruedGlobalPrincipal;\n    AssetLib.Asset public _accruedGlobalLiquidity; // Exact\n    AssetLib.Asset public _accruedGlobalLocked; // Exact\n\n    uint256 public _interestRatesStartIdx;\n    uint256 public _interestRatesNextIdx;\n    mapping(uint256 => InterestRatePerBlock) public _interestRates;\n\n    mapping(address => Stake) _stakes;\n    mapping(address => Locked) _locked;\n    mapping(address => AssetLib.Asset) public _liquidity;\n\n\n    /* Only callable by owner */\n    modifier onlyOwner() {\n        require(_isOwner(), \"Caller is not an owner\");\n        _;\n    }\n\n    /* Only callable by owner or delegate */\n    modifier onlyDelegate() {\n        require(_isOwner() || hasRole(DELEGATE_ROLE, msg.sender), \"Caller is neither owner nor delegate\");\n        _;\n    }\n\n    modifier verifyTxExpiration(uint256 expirationBlock) {\n        require(_getBlockNumber() <= expirationBlock, \"Transaction expired\");\n        _;\n    }\n\n    modifier verifyNotPaused() {\n        require(_pausedSinceBlock > _getBlockNumber(), \"Contract has been paused\");\n        _;\n    }\n\n\n    /*******************\n    Contract start\n    *******************/\n    /**\n     * @param ERC20Address address of the ERC20 contract\n     */\n    constructor(\n          address ERC20Address\n        , uint256 interestRatePerBlock\n        , uint256 pausedSinceBlock\n        , uint64  lockPeriodInBlocks) \n    public \n    {\n        _setupRole(DEFAULT_ADMIN_ROLE, msg.sender);\n\n        _token = IERC20(ERC20Address);\n        _earliestDelete = _getBlockNumber().add(DELETE_PROTECTION_PERIOD);\n        \n        // NOTE(pb): Unnecessary initialisations, shall be done implicitly by VM\n        //_interestRatesStartIdx = 0;\n        //_interestRatesNextIdx = 0;\n        //_rewardsPoolBalance = 0;\n        //_accruedGlobalPrincipal = 0;\n        //_accruedGlobalLiquidity = 0;\n        //_accruedGlobalLocked = 0;\n\n        _updateLockPeriod(lockPeriodInBlocks);\n        _addInterestRate(interestRatePerBlock);\n        _pauseSince(pausedSinceBlock /* uint256(0) */);\n    }\n\n\n    /**\n     * @notice Add new interest rate in to the ordered container of previously added interest rates\n     * @param rate - signed interest rate value in [10**18] units => real_rate [1] = rate [10**18] / 10**18\n     * @param expirationBlock - block number beyond which is the carrier Tx considered expired, and so rejected.\n     *                     This is for protection of Tx sender to exactly define lifecycle length of the Tx,\n     *                     and so avoiding uncertainty of how long Tx sender needs to wait for Tx processing.\n     *                     Tx can be withheld\n     * @dev expiration period\n     */\n    function addInterestRate(\n        uint256 rate,\n        uint256 expirationBlock\n        )\n        external\n        onlyDelegate()\n        verifyTxExpiration(expirationBlock)\n    {\n        _addInterestRate(rate);\n    }\n\n\n    function deposit(\n        uint256 amount,\n        uint256 txExpirationBlock\n        )\n        external\n        verifyTxExpiration(txExpirationBlock)\n        verifyNotPaused\n    {\n        bool makeTransfer = amount != 0;\n        if (makeTransfer) {\n            require(_token.transferFrom(msg.sender, address(this), amount), \"Transfer failed\");\n            _accruedGlobalPrincipal = _accruedGlobalPrincipal.add(amount);\n            _accruedGlobalLiquidity.principal = _accruedGlobalLiquidity.principal.add(amount);\n            emit LiquidityDeposited(msg.sender, amount);\n        }\n\n        uint256 curr_block = _getBlockNumber();\n        (, AssetLib.Asset storage liquidity,) = _collectLiquidity(msg.sender, curr_block);\n\n        if (makeTransfer) {\n            liquidity.principal = liquidity.principal.add(amount);\n       }\n    }\n\n\n    /**\n     * @notice Withdraws amount from sender' available liquidity pool back to sender address,\n     *         preferring withdrawal from compound interest dimension of liquidity.\n     *\n     * @param amount - value to withdraw\n     *\n     * @dev public access\n     */\n    function withdraw(\n        uint256 amount,\n        uint256 txExpirationBlock\n        )\n        external\n        verifyTxExpiration(txExpirationBlock)\n        verifyNotPaused\n    {\n        address sender = msg.sender;\n        uint256 curr_block = _getBlockNumber();\n        (, AssetLib.Asset storage liquidity,) = _collectLiquidity(sender, curr_block);\n\n        AssetLib.Asset memory _amount = liquidity.iSubCompoundInterestFirst(amount);\n        _finaliseWithdraw(sender, _amount, amount);\n    }\n\n\n    /**\n     * @notice Withdraws *WHOLE* compound interest amount available to sender.\n     *\n     * @dev public access\n     */\n    function withdrawPrincipal(\n        uint256 txExpirationBlock\n        )\n        external\n        verifyTxExpiration(txExpirationBlock)\n        verifyNotPaused\n    {\n        address sender = msg.sender;\n        uint256 curr_block = _getBlockNumber();\n        (, AssetLib.Asset storage liquidity, ) = _collectLiquidity(sender, curr_block);\n\n        AssetLib.Asset memory _amount;\n        _amount.principal = liquidity.principal;\n        liquidity.principal = 0;\n\n        _finaliseWithdraw(sender, _amount, _amount.principal);\n    }\n\n\n    /**\n     * @notice Withdraws *WHOLE* compound interest amount available to sender.\n     *\n     * @dev public access\n     */\n    function withdrawCompoundInterest(\n        uint256 txExpirationBlock\n        )\n        external\n        verifyTxExpiration(txExpirationBlock)\n        verifyNotPaused\n    {\n        address sender = msg.sender;\n        uint256 curr_block = _getBlockNumber();\n        (, AssetLib.Asset storage liquidity, ) = _collectLiquidity(sender, curr_block);\n\n        AssetLib.Asset memory _amount;\n        _amount.compoundInterest = liquidity.compoundInterest;\n        liquidity.compoundInterest = 0;\n\n        _finaliseWithdraw(sender, _amount, _amount.compoundInterest);\n    }\n\n\n    /**\n     * @notice Withdraws whole liquidity available to sender back to sender' address,\n     *\n     * @dev public access\n     */\n    function withdrawWholeLiquidity(\n        uint256 txExpirationBlock\n        )\n        external\n        verifyTxExpiration(txExpirationBlock)\n        verifyNotPaused\n    {\n        address sender = msg.sender;\n        uint256 curr_block = _getBlockNumber();\n        (, AssetLib.Asset storage liquidity, ) = _collectLiquidity(sender, curr_block);\n\n        _finaliseWithdraw(sender, liquidity, liquidity.composite());\n        liquidity.compoundInterest = 0;\n        liquidity.principal = 0;\n    }\n\n\n    function bindStake(\n        uint256 amount,\n        uint256 txExpirationBlock\n        )\n        external\n        verifyTxExpiration(txExpirationBlock)\n        verifyNotPaused\n    {\n        require(amount != 0, \"Amount must be higher than zero\");\n\n        uint256 curr_block = _getBlockNumber();\n\n        (, AssetLib.Asset storage liquidity, ) = _collectLiquidity(msg.sender, curr_block);\n\n        //// NOTE(pb): Strictly speaking, the following check is not necessary, since the requirement will be checked\n        ////           during the `iRelocatePrincipalFirst(...)` method code flow (see bellow).\n        //uint256 composite = liquidity.composite();\n        //require(amount <= composite, \"Insufficient liquidity.\");\n\n        Stake storage stake = _updateStakeCompoundInterest(msg.sender, curr_block);\n        AssetLib.Asset memory _amount = liquidity.iRelocatePrincipalFirst(stake.asset, amount);\n        _accruedGlobalLiquidity.iSub(_amount);\n\n       //// NOTE(pb): Emitting only info about Tx input `amount` value, decomposed to principal & compound interest\n       ////           coordinates based on liquidity available.\n       //if (amount > 0) {\n            emit BindStake(msg.sender, stake.sinceInterestRateIndex, _amount.principal, _amount.compoundInterest);\n        //}\n    }\n\n\n    /**\n     * @notice Unbinds amount from the stake of sender of the transaction,\n     *         and *LOCKS* it for number of blocks defined by value of the\n     *         `_lockPeriodInBlocks` state of this contract at the point\n     *         of this call.\n     *         The locked amount can *NOT* be withdrawn from the contract\n     *         *BEFORE* the lock period ends.\n     *\n     *         Unbinding (=calling this method) also means, that compound\n     *         interest will be calculated for period since la.\n     *\n     * @param amount - value to un-bind from the stake\n     *                 If `amount=0` then the **WHOLE** stake (including\n     *                 compound interest) will be unbound.\n     *\n     * @dev public access\n     */\n    function unbindStake(\n        uint256 amount, //NOTE: If zero, then all stake is withdrawn\n        uint256 txExpirationBlock\n        )\n        external\n        verifyTxExpiration(txExpirationBlock)\n        verifyNotPaused\n    {\n        uint256 curr_block = _getBlockNumber();\n        address sender = msg.sender;\n        Stake storage stake = _updateStakeCompoundInterest(sender, curr_block);\n\n        uint256 stake_composite = stake.asset.composite();\n        AssetLib.Asset memory _amount;\n\n        if (amount > 0) {\n            // TODO(pb): Failing this way is expensive (causing rollback of state change).\n            //           It would be beneficial to retain newly calculated liquidity value\n            //           in to the state, thus the invested calculation would not come to wain.\n            //           However that comes with another implication - this would need\n            //           to return status/error code instead of reverting = caller MUST actually\n            //           check the return value, what might be trap for callers who do not expect\n            //           this behaviour (Tx execution passed , but in fact the essential feature\n            //           has not been fully executed).\n            require(amount <= stake_composite, \"Amount is higher than stake\");\n\n            if (_lockPeriodInBlocks == 0) {\n                _amount = stake.asset.iRelocateCompoundInterestFirst(_liquidity[sender], amount);\n                _accruedGlobalLiquidity.iAdd(_amount);\n                emit UnbindStake(sender, curr_block, _amount.principal, _amount.compoundInterest);\n                emit LiquidityUnlocked(sender, _amount.principal, _amount.compoundInterest);\n            } else {\n                Locked storage locked = _locked[sender];\n                LockedAsset storage newLockedAsset = locked.assets.push();\n                newLockedAsset.liquidSinceBlock = curr_block.add(_lockPeriodInBlocks);\n                _amount = stake.asset.iRelocateCompoundInterestFirst(newLockedAsset.asset, amount);\n\n                _accruedGlobalLocked.iAdd(_amount);\n                locked.aggregate.iAdd(_amount);\n\n                // NOTE: Emitting only info about Tx input values, not resulting compound values\n                emit UnbindStake(sender, newLockedAsset.liquidSinceBlock, _amount.principal, _amount.compoundInterest);\n            }\n        } else {\n            if (stake_composite == 0) {\n                // NOTE(pb): Nothing to do\n                return;\n            }\n\n            _amount = stake.asset;\n            stake.asset.principal = 0;\n            stake.asset.compoundInterest = 0;\n\n            if (_lockPeriodInBlocks == 0) {\n                _liquidity[sender].iAdd(_amount);\n                _accruedGlobalLiquidity.iAdd(_amount);\n                emit UnbindStake(sender, curr_block, _amount.principal, _amount.compoundInterest);\n                emit LiquidityUnlocked(sender, _amount.principal, _amount.compoundInterest);\n            } else {\n                Locked storage locked = _locked[sender];\n                LockedAsset storage newLockedAsset = locked.assets.push();\n                newLockedAsset.liquidSinceBlock = curr_block.add(_lockPeriodInBlocks);\n                newLockedAsset.asset = _amount;\n\n                _accruedGlobalLocked.iAdd(_amount);\n                locked.aggregate.iAdd(_amount);\n\n                // NOTE: Emitting only info about Tx input values, not resulting compound values\n                emit UnbindStake(msg.sender, newLockedAsset.liquidSinceBlock, newLockedAsset.asset.principal, newLockedAsset.asset.compoundInterest);\n            }\n        }\n    }\n\n\n    function getRewardsPoolBalance() external view returns(uint256) {\n        return _rewardsPoolBalance;\n    }\n\n\n    function getEarliestDeleteBlock() external view returns(uint256) {\n        return _earliestDelete;\n    }\n\n\n    function getNumberOfLockedAssetsForUser(address forAddress) external view returns(uint256 length) {\n        length = _locked[forAddress].assets.length;\n    }\n\n\n    function getLockedAssetsAggregateForUser(address forAddress) external view returns(uint256 principal, uint256 compoundInterest) {\n        AssetLib.Asset storage aggregate = _locked[forAddress].aggregate;\n        return (aggregate.principal, aggregate.compoundInterest);\n    }\n\n\n    /**\n     * @dev Returns locked assets decomposed in to 3 separate arrays (principal, compound interest, liquid since block)\n     *      NOTE(pb): This method might be quite expensive, depending on size of locked assets\n     */\n    function getLockedAssetsForUser(address forAddress)\n        external view\n        returns(uint256[] memory principal, uint256[] memory compoundInterest, uint256[] memory liquidSinceBlock)\n    {\n        LockedAsset[] storage lockedAssets = _locked[forAddress].assets;\n        uint256 length = lockedAssets.length;\n        if (length != 0) {\n            principal = new uint256[](length);\n            compoundInterest = new uint256[](length);\n            liquidSinceBlock = new uint256[](length);\n\n            for (uint256 i=0; i < length; ++i) {\n                LockedAsset storage la = lockedAssets[i];\n                AssetLib.Asset storage a = la.asset;\n                principal[i] = a.principal;\n                compoundInterest[i] = a.compoundInterest;\n                liquidSinceBlock[i] = la.liquidSinceBlock;\n            }\n        }\n    }\n\n\n    function getStakeForUser(address forAddress) external view returns(uint256 principal, uint256 compoundInterest, uint256 sinceBlock, uint256 sinceInterestRateIndex) {\n        Stake storage stake = _stakes[forAddress];\n        principal = stake.asset.principal;\n        compoundInterest = stake.asset.compoundInterest;\n        sinceBlock = stake.sinceBlock;\n        sinceInterestRateIndex = stake.sinceInterestRateIndex;\n    }\n\n\n    /**\n       @dev Even though this is considered as administrative action (is not affected by\n            by contract paused state, it can be executed by anyone who wishes to\n            top-up the rewards pool (funds are sent in to contract, *not* the other way around).\n            The Rewards Pool is exclusively dedicated to cover withdrawals of user' compound interest,\n            which is effectively the reward.\n     */\n    function topUpRewardsPool(\n        uint256 amount,\n        uint256 txExpirationBlock\n        )\n        external\n        verifyTxExpiration(txExpirationBlock)\n    {\n        if (amount == 0) {\n            return;\n        }\n\n        require(_token.transferFrom(msg.sender, address(this), amount), \"Transfer failed\");\n        _rewardsPoolBalance = _rewardsPoolBalance.add(amount);\n        emit RewardsPoolTokenTopUp(msg.sender, amount);\n    }\n\n\n    /**\n     * @notice Updates Lock Period value\n     * @param numOfBlocks  length of the lock period\n     * @dev Delegate only\n     */\n    function updateLockPeriod(uint64 numOfBlocks, uint256 txExpirationBlock)\n        external\n        verifyTxExpiration(txExpirationBlock)\n        onlyDelegate\n    {\n        _updateLockPeriod(numOfBlocks);\n    }\n\n\n    /**\n     * @notice Pauses all NON-administrative interaction with the contract since the specidfed block number \n     * @param blockNumber block number since which non-admin interaction will be paused (for all _getBlockNumber() >= blockNumber)\n     * @dev Delegate only\n     */\n    function pauseSince(uint256 blockNumber, uint256 txExpirationBlock)\n        external\n        verifyTxExpiration(txExpirationBlock)\n        onlyDelegate\n    {\n        _pauseSince(blockNumber);\n    }\n\n\n    /**\n     * @dev Withdraw tokens from rewards pool.\n     *\n     * @param amount : amount to withdraw.\n     *                 If `amount == 0` then whole amount in rewards pool will be withdrawn.\n     * @param targetAddress : address to send tokens to\n     */\n    function withdrawFromRewardsPool(uint256 amount, address payable targetAddress,\n        uint256 txExpirationBlock\n        )\n        external\n        verifyTxExpiration(txExpirationBlock)\n        onlyOwner\n    {\n        if (amount == 0) {\n            amount = _rewardsPoolBalance;\n        } else {\n            require(amount <= _rewardsPoolBalance, \"Amount higher than rewards pool\");\n        }\n\n        // NOTE(pb): Strictly speaking, consistency check in following lines is not necessary,\n        //           the if-else code above guarantees that everything is alright:\n        uint256 contractBalance = _token.balanceOf(address(this));\n        uint256 expectedMinContractBalance = _accruedGlobalPrincipal.add(amount);\n        require(expectedMinContractBalance <= contractBalance, \"Contract inconsistency.\");\n\n        require(_token.transfer(targetAddress, amount), \"Not enough funds on contr. addr.\");\n\n        // NOTE(pb): No need for SafeMath.sub since the overflow is checked in the if-else code above.\n        _rewardsPoolBalance -= amount;\n\n        emit RewardsPoolTokenWithdrawal(targetAddress, amount);\n    }\n\n\n    /**\n     * @dev Withdraw \"excess\" tokens, which were sent to contract directly via direct ERC20.transfer(...),\n     *      without interacting with API of this (Staking) contract, what could be done only by mistake.\n     *      Thus this method is meant to be used primarily for rescue purposes, enabling withdrawal of such\n     *      \"excess\" tokens out of contract.\n     * @param targetAddress : address to send tokens to\n     * @param txExpirationBlock : block number until which is the transaction valid (inclusive).\n     *                            When transaction is processed after this block, it fails.\n     */\n    function withdrawExcessTokens(address payable targetAddress, uint256 txExpirationBlock)\n        external\n        verifyTxExpiration(txExpirationBlock)\n        onlyOwner\n    {\n        uint256 contractBalance = _token.balanceOf(address(this));\n        uint256 expectedMinContractBalance = _accruedGlobalPrincipal.add(_rewardsPoolBalance);\n        // NOTE(pb): The following subtraction shall *fail* (revert) IF the contract is in *INCONSISTENT* state,\n        //           = when contract balance is less than minial expected balance:\n        uint256 excessAmount = contractBalance.sub(expectedMinContractBalance);\n        require(_token.transfer(targetAddress, excessAmount), \"Not enough funds on contr. addr.\");\n        emit ExcessTokenWithdrawal(targetAddress, excessAmount);\n    }\n\n\n    /**\n     * @notice Delete the contract, transfers the remaining token and ether balance to the specified\n       payoutAddress\n     * @param payoutAddress address to transfer the balances to. Ensure that this is able to handle ERC20 tokens\n     * @dev owner only + only on or after `_earliestDelete` block\n     */\n    function deleteContract(address payable payoutAddress, uint256 txExpirationBlock)\n    external\n    verifyTxExpiration(txExpirationBlock)\n    onlyOwner\n    {\n        require(_earliestDelete >= _getBlockNumber(), \"Earliest delete not reached\");\n        uint256 contractBalance = _token.balanceOf(address(this));\n        require(_token.transfer(payoutAddress, contractBalance));\n        emit DeleteContract();\n        selfdestruct(payoutAddress);\n    }\n \n\n    // **********************************************************\n    // ******************    INTERNAL METHODS   *****************\n\n\n    /**\n     * @dev VIRTUAL Method returning bock number. Introduced for \n     *      testing purposes (allows mocking).\n     */\n    function _getBlockNumber() internal view virtual returns(uint256)\n    {\n        return block.number;\n    }\n\n\n    function _isOwner() internal view returns(bool) {\n        return hasRole(DEFAULT_ADMIN_ROLE, msg.sender);\n    }\n\n\n    /**\n     * @notice Add new interest rate in to the ordered container of previously added interest rates\n     * @param rate - signed interest rate value in [10**18] units => real_rate [1] = rate [10**18] / 10**18\n     */\n    function _addInterestRate(uint256 rate) internal \n    {\n        uint256 idx = _interestRatesNextIdx;\n        _interestRates[idx] = InterestRatePerBlock({\n              sinceBlock: _getBlockNumber()\n            , rate: rate\n            //,numberOfRegisteredUsers: 0\n            });\n        _interestRatesNextIdx = _interestRatesNextIdx.add(1);\n\n        emit NewInterestRate(idx, rate);\n    }\n\n\n    /**\n     * @notice Updates Lock Period value\n     * @param numOfBlocks  length of the lock period\n     */\n    function _updateLockPeriod(uint64 numOfBlocks) internal\n    {\n        _lockPeriodInBlocks = numOfBlocks;\n        emit LockPeriod(numOfBlocks);\n    }\n\n\n    /**\n     * @notice Pauses all NON-administrative interaction with the contract since the specidfed block number \n     * @param blockNumber block number since which non-admin interaction will be paused (for all _getBlockNumber() >= blockNumber)\n     */\n    function _pauseSince(uint256 blockNumber) internal \n    {\n        uint256 currentBlockNumber = _getBlockNumber();\n        _pausedSinceBlock = blockNumber < currentBlockNumber ? currentBlockNumber : blockNumber;\n        emit Pause(_pausedSinceBlock);\n    }\n\n\n    /**\n     * @notice Withdraws amount from sender' available liquidity pool back to sender address,\n     *         preferring withdrawal from compound interest dimension of liquidity.\n     *\n     * @param amount - value to withdraw\n     *\n     * @dev NOTE(pb): Passing redundant `uint256 amount` (on top of the `Asset _amount`) in the name\n     *                of performance to avoid calculating it again from `_amount` (or the other way around).\n     *                IMPLICATION: Caller **MUST** pass correct values, ensuring that `amount == _amount.composite()`,\n     *                since this private method is **NOT** verifying this condition due to performance reasons.\n     */\n    function _finaliseWithdraw(address sender, AssetLib.Asset memory _amount, uint256 amount) internal {\n         if (amount != 0) {\n            require(_rewardsPoolBalance >= _amount.compoundInterest, \"Not enough funds in rewards pool\");\n            require(_token.transfer(sender, amount), \"Transfer failed\");\n\n            _rewardsPoolBalance = _rewardsPoolBalance.sub(_amount.compoundInterest);\n            _accruedGlobalPrincipal = _accruedGlobalPrincipal.sub(_amount.principal);\n            _accruedGlobalLiquidity.iSub(_amount);\n\n            // NOTE(pb): Emitting only info about Tx input `amount` value, decomposed to principal & compound interest\n            //           coordinates based on liquidity available.\n            emit Withdraw(msg.sender, _amount.principal, _amount.compoundInterest);\n         }\n    }\n\n\n    function _updateStakeCompoundInterest(address sender, uint256 at_block)\n        internal\n        returns(Stake storage stake)\n    {\n        stake = _stakes[sender];\n        uint256 composite = stake.asset.composite();\n        if (composite != 0)\n        {\n            // TODO(pb): There is more effective algorithm than this.\n            uint256 start_block = stake.sinceBlock;\n            // NOTE(pb): Probability of `++i`  or `j=i+1` overflowing is limitly approaching zero,\n            // since we would need to create `(1<<256)-1`, resp `1<<256)-2`,  number of interrest rates in order to reach the overflow\n            for (uint256 i=stake.sinceInterestRateIndex; i < _interestRatesNextIdx; ++i) {\n                InterestRatePerBlock storage interest = _interestRates[i];\n                // TODO(pb): It is not strictly necessary to do this assert, and rather fully rely\n                //           on correctness of `addInterestRate(...)` implementation.\n                require(interest.sinceBlock <= start_block, \"sinceBlock inconsistency\");\n                uint256 end_block = at_block;\n\n                uint256 j = i + 1;\n                if (j < _interestRatesNextIdx) {\n                    InterestRatePerBlock storage next_interest = _interestRates[j];\n                    end_block = next_interest.sinceBlock;\n                }\n\n                composite = Finance.compoundInterest(composite, interest.rate, end_block - start_block);\n                start_block = end_block;\n            }\n\n            stake.asset.compoundInterest = composite.sub(stake.asset.principal);\n        }\n\n        stake.sinceBlock = at_block;\n        stake.sinceInterestRateIndex = (_interestRatesNextIdx != 0 ? _interestRatesNextIdx - 1 : 0);\n        // TODO(pb): Careful: The `StakeCompoundInterest` event doers not carry explicit block number value - it relies\n        //           on the fact that Event implicitly carries value block.number where the event has been triggered,\n        //           what however can be different than value of the `at_block` input parameter passed in.\n        //           Thus this method needs to be EITHER refactored to drop the `at_block` parameter (and so get the\n        //           value internally by calling the `_getBlockNumber()` method), OR the `StakeCompoundInterest` event\n        //           needs to be extended to include the `uint256 sinceBlock` attribute.\n        //           The original reason for passing the `at_block` parameter was to spare gas for calling the\n        //           `_getBlockNumber()` method twice (by the caller of this method + by this method), what might NOT be\n        //           relevant anymore (after refactoring), since caller might not need to use the block number value anymore.\n        emit StakeCompoundInterest(sender, stake.sinceInterestRateIndex, stake.asset.principal, stake.asset.compoundInterest);\n    }\n\n\n    function _collectLiquidity(address sender, uint256 at_block)\n        internal\n        returns(AssetLib.Asset memory unlockedLiquidity, AssetLib.Asset storage liquidity, bool collected)\n    {\n        Locked storage locked = _locked[sender];\n        LockedAsset[] storage lockedAssets = locked.assets;\n        liquidity = _liquidity[sender];\n\n        for (uint256 i=0; i < lockedAssets.length; ) {\n            LockedAsset memory l = lockedAssets[i];\n\n            if (l.liquidSinceBlock > at_block) {\n                ++i; // NOTE(pb): Probability of overflow is zero, what is ensured by condition in this for cycle.\n                continue;\n            }\n\n            unlockedLiquidity.principal = unlockedLiquidity.principal.add(l.asset.principal);\n            // NOTE(pb): The following can potentially overflow, since accrued compound interest can be high, depending on values on sequence of interest rates & length of compounding intervals involved.\n            unlockedLiquidity.compoundInterest = unlockedLiquidity.compoundInterest.add(l.asset.compoundInterest);\n\n            // Copying last element of the array in to the current one,\n            // so that the last one can be popped out of the array.\n            // NOTE(pb): Probability of overflow during `-` operation is zero, what is ensured by condition in this for cycle.\n            uint256 last_idx = lockedAssets.length - 1;\n            if (i != last_idx) {\n                lockedAssets[i] = lockedAssets[last_idx];\n            }\n            // TODO(pb): It will be cheaper (GAS consumption-wise) to simply leave\n            // elements in array (do NOT delete them) and rather store \"amortised\"\n            // size of the array in secondary separate store variable (= do NOT\n            // use `array.length` as primary indication of array length).\n            // Destruction of the array items is expensive. Excess of \"allocated\"\n            // array storage can be left temporarily (or even permanently) unused.\n            lockedAssets.pop();\n        }\n\n        // TODO(pb): This should not be necessary.\n        if (lockedAssets.length == 0) {\n            delete _locked[sender];\n        }\n\n        collected = unlockedLiquidity.principal != 0 || unlockedLiquidity.compoundInterest != 0;\n        if (collected) {\n             emit LiquidityUnlocked(sender, unlockedLiquidity.principal, unlockedLiquidity.compoundInterest);\n\n            _accruedGlobalLocked.iSub(unlockedLiquidity);\n            if (lockedAssets.length != 0) {\n                locked.aggregate.iSub(unlockedLiquidity);\n            }\n\n            _accruedGlobalLiquidity.iAdd(unlockedLiquidity);\n\n            liquidity.iAdd(unlockedLiquidity);\n        }\n    }\n\n}\n",
  "sourcePath": "/Users/pb/code/fetch/cosmos/ledger-staking-contract/contracts/Staking.sol",
  "compiler": {
    "name": "solc",
    "version": "0.6.8+commit.0bbfe453.Emscripten.clang"
  },
  "schemaVersion": "3.1.0",
  "updatedAt": "2020-10-13T17:26:53.190Z",
  "devdoc": {
    "methods": {
      "addInterestRate(uint256,uint256)": {
        "details": "expiration period",
        "params": {
          "expirationBlock": "- block number beyond which is the carrier Tx considered expired, and so rejected.                    This is for protection of Tx sender to exactly define lifecycle length of the Tx,                    and so avoiding uncertainty of how long Tx sender needs to wait for Tx processing.                    Tx can be withheld",
          "rate": "- signed interest rate value in [10**18] units => real_rate [1] = rate [10**18] / 10**18"
        }
      },
      "constructor": {
        "params": {
          "ERC20Address": "address of the ERC20 contract"
        }
      },
      "deleteContract(address,uint256)": {
        "details": "owner only + only on or after `_earliestDelete` block",
        "params": {
          "payoutAddress": "address to transfer the balances to. Ensure that this is able to handle ERC20 tokens"
        }
      },
      "getLockedAssetsForUser(address)": {
        "details": "Returns locked assets decomposed in to 3 separate arrays (principal, compound interest, liquid since block)     NOTE(pb): This method might be quite expensive, depending on size of locked assets"
      },
      "getRoleAdmin(bytes32)": {
        "details": "Returns the admin role that controls `role`. See {grantRole} and {revokeRole}.     * To change a role's admin, use {_setRoleAdmin}."
      },
      "getRoleMember(bytes32,uint256)": {
        "details": "Returns one of the accounts that have `role`. `index` must be a value between 0 and {getRoleMemberCount}, non-inclusive.     * Role bearers are not sorted in any particular way, and their ordering may change at any point.     * WARNING: When using {getRoleMember} and {getRoleMemberCount}, make sure you perform all queries on the same block. See the following https://forum.openzeppelin.com/t/iterating-over-elements-on-enumerableset-in-openzeppelin-contracts/2296[forum post] for more information."
      },
      "getRoleMemberCount(bytes32)": {
        "details": "Returns the number of accounts that have `role`. Can be used together with {getRoleMember} to enumerate all bearers of a role."
      },
      "grantRole(bytes32,address)": {
        "details": "Grants `role` to `account`.     * If `account` had not been already granted `role`, emits a {RoleGranted} event.     * Requirements:     * - the caller must have ``role``'s admin role."
      },
      "hasRole(bytes32,address)": {
        "details": "Returns `true` if `account` has been granted `role`."
      },
      "pauseSince(uint256,uint256)": {
        "details": "Delegate only",
        "params": {
          "blockNumber": "block number since which non-admin interaction will be paused (for all _getBlockNumber() >= blockNumber)"
        }
      },
      "renounceRole(bytes32,address)": {
        "details": "Revokes `role` from the calling account.     * Roles are often managed via {grantRole} and {revokeRole}: this function's purpose is to provide a mechanism for accounts to lose their privileges if they are compromised (such as when a trusted device is misplaced).     * If the calling account had been granted `role`, emits a {RoleRevoked} event.     * Requirements:     * - the caller must be `account`."
      },
      "revokeRole(bytes32,address)": {
        "details": "Revokes `role` from `account`.     * If `account` had been granted `role`, emits a {RoleRevoked} event.     * Requirements:     * - the caller must have ``role``'s admin role."
      },
      "topUpRewardsPool(uint256,uint256)": {
        "details": "Even though this is considered as administrative action (is not affected by by contract paused state, it can be executed by anyone who wishes to top-up the rewards pool (funds are sent in to contract, *not* the other way around). The Rewards Pool is exclusively dedicated to cover withdrawals of user' compound interest, which is effectively the reward."
      },
      "unbindStake(uint256,uint256)": {
        "details": "public access",
        "params": {
          "amount": "- value to un-bind from the stake                If `amount=0` then the **WHOLE** stake (including                compound interest) will be unbound."
        }
      },
      "updateLockPeriod(uint64,uint256)": {
        "details": "Delegate only",
        "params": {
          "numOfBlocks": "length of the lock period"
        }
      },
      "withdraw(uint256,uint256)": {
        "details": "public access",
        "params": {
          "amount": "- value to withdraw"
        }
      },
      "withdrawCompoundInterest(uint256)": {
        "details": "public access"
      },
      "withdrawExcessTokens(address,uint256)": {
        "details": "Withdraw \"excess\" tokens, which were sent to contract directly via direct ERC20.transfer(...),     without interacting with API of this (Staking) contract, what could be done only by mistake.     Thus this method is meant to be used primarily for rescue purposes, enabling withdrawal of such     \"excess\" tokens out of contract.",
        "params": {
          "targetAddress": ": address to send tokens to",
          "txExpirationBlock": ": block number until which is the transaction valid (inclusive).                           When transaction is processed after this block, it fails."
        }
      },
      "withdrawFromRewardsPool(uint256,address,uint256)": {
        "details": "Withdraw tokens from rewards pool.",
        "params": {
          "amount": ": amount to withdraw.                If `amount == 0` then whole amount in rewards pool will be withdrawn.",
          "targetAddress": ": address to send tokens to"
        }
      },
      "withdrawPrincipal(uint256)": {
        "details": "public access"
      },
      "withdrawWholeLiquidity(uint256)": {
        "details": "public access"
      }
    }
  },
  "userdoc": {
    "methods": {
      "addInterestRate(uint256,uint256)": {
        "notice": "Add new interest rate in to the ordered container of previously added interest rates"
      },
      "deleteContract(address,uint256)": {
        "notice": "Delete the contract, transfers the remaining token and ether balance to the specified payoutAddress"
      },
      "pauseSince(uint256,uint256)": {
        "notice": "Pauses all NON-administrative interaction with the contract since the specidfed block number "
      },
      "unbindStake(uint256,uint256)": {
        "notice": "Unbinds amount from the stake of sender of the transaction,        and *LOCKS* it for number of blocks defined by value of the        `_lockPeriodInBlocks` state of this contract at the point        of this call.        The locked amount can *NOT* be withdrawn from the contract        *BEFORE* the lock period ends.     *         Unbinding (=calling this method) also means, that compound        interest will be calculated for period since la."
      },
      "updateLockPeriod(uint64,uint256)": {
        "notice": "Updates Lock Period value"
      },
      "withdraw(uint256,uint256)": {
        "notice": "Withdraws amount from sender' available liquidity pool back to sender address,        preferring withdrawal from compound interest dimension of liquidity."
      },
      "withdrawCompoundInterest(uint256)": {
        "notice": "Withdraws *WHOLE* compound interest amount available to sender."
      },
      "withdrawPrincipal(uint256)": {
        "notice": "Withdraws *WHOLE* compound interest amount available to sender."
      },
      "withdrawWholeLiquidity(uint256)": {
        "notice": "Withdraws whole liquidity available to sender back to sender' address,"
      }
    }
  }
}