{
  "contractName": "FetchOracle",
  "abi": [
    {
      "inputs": [
        {
          "internalType": "address",
          "name": "ERC20Address",
          "type": "address"
        },
        {
          "internalType": "uint256",
          "name": "initialFee",
          "type": "uint256"
        }
      ],
      "stateMutability": "nonpayable",
      "type": "constructor"
    },
    {
      "anonymous": false,
      "inputs": [
        {
          "indexed": false,
          "internalType": "address",
          "name": "targetAddress",
          "type": "address"
        },
        {
          "indexed": false,
          "internalType": "uint256",
          "name": "amount",
          "type": "uint256"
        }
      ],
      "name": "AccruedFeesWithdrawal",
      "type": "event"
    },
    {
      "anonymous": false,
      "inputs": [],
      "name": "ContractDeleted",
      "type": "event"
    },
    {
      "anonymous": false,
      "inputs": [
        {
          "indexed": false,
          "internalType": "address",
          "name": "targetAddress",
          "type": "address"
        },
        {
          "indexed": false,
          "internalType": "uint256",
          "name": "amount",
          "type": "uint256"
        }
      ],
      "name": "ExcessTokenWithdrawal",
      "type": "event"
    },
    {
      "anonymous": false,
      "inputs": [
        {
          "indexed": false,
          "internalType": "uint256",
          "name": "fee",
          "type": "uint256"
        }
      ],
      "name": "FeeUpdated",
      "type": "event"
    },
    {
      "anonymous": false,
      "inputs": [
        {
          "indexed": false,
          "internalType": "uint256",
          "name": "atBlock",
          "type": "uint256"
        }
      ],
      "name": "OracleValueUpdated",
      "type": "event"
    },
    {
      "anonymous": false,
      "inputs": [
        {
          "indexed": false,
          "internalType": "uint256",
          "name": "sinceBlock",
          "type": "uint256"
        }
      ],
      "name": "Pause",
      "type": "event"
    },
    {
      "anonymous": false,
      "inputs": [
        {
          "indexed": true,
          "internalType": "bytes32",
          "name": "role",
          "type": "bytes32"
        },
        {
          "indexed": true,
          "internalType": "bytes32",
          "name": "previousAdminRole",
          "type": "bytes32"
        },
        {
          "indexed": true,
          "internalType": "bytes32",
          "name": "newAdminRole",
          "type": "bytes32"
        }
      ],
      "name": "RoleAdminChanged",
      "type": "event"
    },
    {
      "anonymous": false,
      "inputs": [
        {
          "indexed": true,
          "internalType": "bytes32",
          "name": "role",
          "type": "bytes32"
        },
        {
          "indexed": true,
          "internalType": "address",
          "name": "account",
          "type": "address"
        },
        {
          "indexed": true,
          "internalType": "address",
          "name": "sender",
          "type": "address"
        }
      ],
      "name": "RoleGranted",
      "type": "event"
    },
    {
      "anonymous": false,
      "inputs": [
        {
          "indexed": true,
          "internalType": "bytes32",
          "name": "role",
          "type": "bytes32"
        },
        {
          "indexed": true,
          "internalType": "address",
          "name": "account",
          "type": "address"
        },
        {
          "indexed": true,
          "internalType": "address",
          "name": "sender",
          "type": "address"
        }
      ],
      "name": "RoleRevoked",
      "type": "event"
    },
    {
      "inputs": [],
      "name": "DEFAULT_ADMIN_ROLE",
      "outputs": [
        {
          "internalType": "bytes32",
          "name": "",
          "type": "bytes32"
        }
      ],
      "stateMutability": "view",
      "type": "function"
    },
    {
      "inputs": [],
      "name": "DELEGATE_ROLE",
      "outputs": [
        {
          "internalType": "bytes32",
          "name": "",
          "type": "bytes32"
        }
      ],
      "stateMutability": "view",
      "type": "function"
    },
    {
      "inputs": [],
      "name": "DELETE_PROTECTION_PERIOD",
      "outputs": [
        {
          "internalType": "uint256",
          "name": "",
          "type": "uint256"
        }
      ],
      "stateMutability": "view",
      "type": "function"
    },
    {
      "inputs": [],
      "name": "ORACLE_ROLE",
      "outputs": [
        {
          "internalType": "bytes32",
          "name": "",
          "type": "bytes32"
        }
      ],
      "stateMutability": "view",
      "type": "function"
    },
    {
      "inputs": [],
      "name": "_accruedFeesAmount",
      "outputs": [
        {
          "internalType": "uint256",
          "name": "",
          "type": "uint256"
        }
      ],
      "stateMutability": "view",
      "type": "function"
    },
    {
      "inputs": [],
      "name": "_earliestDelete",
      "outputs": [
        {
          "internalType": "uint256",
          "name": "",
          "type": "uint256"
        }
      ],
      "stateMutability": "view",
      "type": "function"
    },
    {
      "inputs": [],
      "name": "_fee",
      "outputs": [
        {
          "internalType": "uint256",
          "name": "",
          "type": "uint256"
        }
      ],
      "stateMutability": "view",
      "type": "function"
    },
    {
      "inputs": [],
      "name": "_feeCurrency",
      "outputs": [
        {
          "internalType": "enum FetchOracle.FeeCurrency",
          "name": "",
          "type": "uint8"
        }
      ],
      "stateMutability": "view",
      "type": "function"
    },
    {
      "inputs": [],
      "name": "_pausedSinceBlock",
      "outputs": [
        {
          "internalType": "uint256",
          "name": "",
          "type": "uint256"
        }
      ],
      "stateMutability": "view",
      "type": "function"
    },
    {
      "inputs": [],
      "name": "_token",
      "outputs": [
        {
          "internalType": "contract IERC20",
          "name": "",
          "type": "address"
        }
      ],
      "stateMutability": "view",
      "type": "function"
    },
    {
      "inputs": [
        {
          "internalType": "bytes32",
          "name": "role",
          "type": "bytes32"
        }
      ],
      "name": "getRoleAdmin",
      "outputs": [
        {
          "internalType": "bytes32",
          "name": "",
          "type": "bytes32"
        }
      ],
      "stateMutability": "view",
      "type": "function"
    },
    {
      "inputs": [
        {
          "internalType": "bytes32",
          "name": "role",
          "type": "bytes32"
        },
        {
          "internalType": "uint256",
          "name": "index",
          "type": "uint256"
        }
      ],
      "name": "getRoleMember",
      "outputs": [
        {
          "internalType": "address",
          "name": "",
          "type": "address"
        }
      ],
      "stateMutability": "view",
      "type": "function"
    },
    {
      "inputs": [
        {
          "internalType": "bytes32",
          "name": "role",
          "type": "bytes32"
        }
      ],
      "name": "getRoleMemberCount",
      "outputs": [
        {
          "internalType": "uint256",
          "name": "",
          "type": "uint256"
        }
      ],
      "stateMutability": "view",
      "type": "function"
    },
    {
      "inputs": [
        {
          "internalType": "bytes32",
          "name": "role",
          "type": "bytes32"
        },
        {
          "internalType": "address",
          "name": "account",
          "type": "address"
        }
      ],
      "name": "grantRole",
      "outputs": [],
      "stateMutability": "nonpayable",
      "type": "function"
    },
    {
      "inputs": [
        {
          "internalType": "bytes32",
          "name": "role",
          "type": "bytes32"
        },
        {
          "internalType": "address",
          "name": "account",
          "type": "address"
        }
      ],
      "name": "hasRole",
      "outputs": [
        {
          "internalType": "bool",
          "name": "",
          "type": "bool"
        }
      ],
      "stateMutability": "view",
      "type": "function"
    },
    {
      "inputs": [
        {
          "internalType": "bytes32",
          "name": "role",
          "type": "bytes32"
        },
        {
          "internalType": "address",
          "name": "account",
          "type": "address"
        }
      ],
      "name": "renounceRole",
      "outputs": [],
      "stateMutability": "nonpayable",
      "type": "function"
    },
    {
      "inputs": [
        {
          "internalType": "bytes32",
          "name": "role",
          "type": "bytes32"
        },
        {
          "internalType": "address",
          "name": "account",
          "type": "address"
        }
      ],
      "name": "revokeRole",
      "outputs": [],
      "stateMutability": "nonpayable",
      "type": "function"
    },
    {
      "inputs": [
        {
          "internalType": "uint256",
          "name": "value",
          "type": "uint256"
        },
        {
          "internalType": "uint8",
          "name": "decimals",
          "type": "uint8"
        },
        {
          "internalType": "uint256",
          "name": "txExpirationBlock",
          "type": "uint256"
        }
      ],
      "name": "updateOracleValue",
      "outputs": [],
      "stateMutability": "nonpayable",
      "type": "function"
    },
    {
      "inputs": [],
      "name": "queryOracleValue",
      "outputs": [
        {
          "internalType": "uint256",
          "name": "value",
          "type": "uint256"
        },
        {
          "internalType": "uint8",
          "name": "decimals",
          "type": "uint8"
        },
        {
          "internalType": "uint256",
          "name": "updatedAtEthBlockNumber",
          "type": "uint256"
        }
      ],
      "stateMutability": "payable",
      "type": "function"
    },
    {
      "inputs": [
        {
          "internalType": "uint256",
          "name": "fee",
          "type": "uint256"
        },
        {
          "internalType": "uint256",
          "name": "txExpirationBlock",
          "type": "uint256"
        }
      ],
      "name": "setFee",
      "outputs": [],
      "stateMutability": "nonpayable",
      "type": "function"
    },
    {
      "inputs": [
        {
          "internalType": "uint256",
          "name": "block_number",
          "type": "uint256"
        },
        {
          "internalType": "uint256",
          "name": "txExpirationBlock",
          "type": "uint256"
        }
      ],
      "name": "pauseSince",
      "outputs": [],
      "stateMutability": "nonpayable",
      "type": "function"
    },
    {
      "inputs": [
        {
          "internalType": "address payable",
          "name": "targetAddress",
          "type": "address"
        },
        {
          "internalType": "uint256",
          "name": "txExpirationBlock",
          "type": "uint256"
        }
      ],
      "name": "withdrawAccruedFees",
      "outputs": [],
      "stateMutability": "nonpayable",
      "type": "function"
    },
    {
      "inputs": [
        {
          "internalType": "address payable",
          "name": "targetAddress",
          "type": "address"
        },
        {
          "internalType": "uint256",
          "name": "txExpirationBlock",
          "type": "uint256"
        }
      ],
      "name": "withdrawExcessTokens",
      "outputs": [],
      "stateMutability": "nonpayable",
      "type": "function"
    },
    {
      "inputs": [
        {
          "internalType": "address payable",
          "name": "payoutAddress",
          "type": "address"
        },
        {
          "internalType": "uint256",
          "name": "txExpirationBlock",
          "type": "uint256"
        }
      ],
      "name": "deleteContract",
      "outputs": [],
      "stateMutability": "nonpayable",
      "type": "function"
    },
    {
      "inputs": [],
      "name": "oracleValueLastUpdated",
      "outputs": [
        {
          "internalType": "uint256",
          "name": "",
          "type": "uint256"
        }
      ],
      "stateMutability": "view",
      "type": "function"
    }
  ],
  "bytecode": "0x60806040523480156200001157600080fd5b5060405162001bc538038062001bc5833981810160405260408110156200003757600080fd5b508051602090910151620000566000336001600160e01b03620000e016565b6001600160a01b03821662000078576009805460ff191660011790556200009e565b6009805460ff19169055600180546001600160a01b0319166001600160a01b0384161790555b620000cd6205a66d620000b96001600160e01b03620000f916565b620000fd60201b620010611790919060201c565b6002556000196003556004555062000277565b620000f582826001600160e01b036200016116565b5050565b4390565b60008282018381101562000158576040805162461bcd60e51b815260206004820152601b60248201527f536166654d6174683a206164646974696f6e206f766572666c6f770000000000604482015290519081900360640190fd5b90505b92915050565b60008281526020818152604090912062000186918390620010bb620001e3821b17901c565b15620000f5576200019f6001600160e01b036200020316565b6001600160a01b0316816001600160a01b0316837f2f8788117e7eff1d82e926ec794901d17c78024a50270940304540a733656f0d60405160405180910390a45050565b600062000158836001600160a01b0384166001600160e01b036200020716565b3390565b60006200021e83836001600160e01b036200025f16565b62000256575081546001818101845560008481526020808220909301849055845484825282860190935260409020919091556200015b565b5060006200015b565b60009081526001919091016020526040902054151590565b61193e80620002876000396000f3fe6080604052600436106101665760003560e01c806391d14854116100d1578063c5b37c221161008a578063d83222ec11610064578063d83222ec14610527578063ecd0c0c31461053c578063f1209ef714610551578063f7e1c7481461056657610166565b8063c5b37c22146104af578063ca15c873146104c4578063d547741f146104ee57610166565b806391d14854146103b15780639608df4b146103fe578063993240a3146104375780639bc1890914610470578063a217fddf14610485578063c0ba241b1461049a57610166565b806336568abe1161012357806336568abe14610275578063372646bb146102ae57806352f7c988146102c357806353e052ac146102f357806359f9f7cc1461032c5780639010d07c1461036557610166565b806307e2cea51461016b578063248a9ca3146101925780632f2ff15d146101bc578063323f4501146101f757806332a1bd7014610230578063347908df14610245575b600080fd5b34801561017757600080fd5b5061018061058e565b60408051918252519081900360200190f35b34801561019e57600080fd5b50610180600480360360208110156101b557600080fd5b50356105b1565b3480156101c857600080fd5b506101f5600480360360408110156101df57600080fd5b50803590602001356001600160a01b03166105c6565b005b34801561020357600080fd5b506101f56004803603604081101561021a57600080fd5b506001600160a01b038135169060200135610632565b34801561023c57600080fd5b50610180610748565b34801561025157600080fd5b506101f56004803603604081101561026857600080fd5b508035906020013561074e565b34801561028157600080fd5b506101f56004803603604081101561029857600080fd5b50803590602001356001600160a01b031661086e565b3480156102ba57600080fd5b506101806108cf565b3480156102cf57600080fd5b506101f5600480360360408110156102e657600080fd5b50803590602001356108d6565b3480156102ff57600080fd5b506101f56004803603604081101561031657600080fd5b506001600160a01b0381351690602001356109db565b34801561033857600080fd5b506101f56004803603606081101561034f57600080fd5b5080359060ff6020820135169060400135610baa565b34801561037157600080fd5b506103956004803603604081101561038857600080fd5b5080359060200135610cd1565b604080516001600160a01b039092168252519081900360200190f35b3480156103bd57600080fd5b506103ea600480360360408110156103d457600080fd5b50803590602001356001600160a01b0316610cf8565b604080519115158252519081900360200190f35b34801561040a57600080fd5b506101f56004803603604081101561042157600080fd5b506001600160a01b038135169060200135610d16565b34801561044357600080fd5b5061044c610f74565b6040518082600181111561045c57fe5b60ff16815260200191505060405180910390f35b34801561047c57600080fd5b50610180610f7d565b34801561049157600080fd5b50610180610f83565b3480156104a657600080fd5b50610180610f88565b3480156104bb57600080fd5b50610180610fad565b3480156104d057600080fd5b50610180600480360360208110156104e757600080fd5b5035610fb3565b3480156104fa57600080fd5b506101f56004803603604081101561051157600080fd5b50803590602001356001600160a01b0316610fca565b34801561053357600080fd5b50610180611023565b34801561054857600080fd5b50610395611029565b34801561055d57600080fd5b50610180611038565b61056e61103e565b6040805193845260ff909216602084015282820152519081900360600190f35b604080516a4f5241434c455f524f4c4560a81b8152905190819003600b01902081565b60009081526020819052604090206002015490565b6000828152602081905260409020600201546105e9906105e46110d0565b610cf8565b6106245760405162461bcd60e51b815260040180806020018281038252602f815260200180611857602f913960400191505060405180910390fd5b61062e82826110d4565b5050565b808061063c611143565b1115610685576040805162461bcd60e51b8152602060048201526013602482015272151c985b9cd858dd1a5bdb88195e1c1a5c9959606a1b604482015290519081900360640190fd5b61068d611147565b6106de576040805162461bcd60e51b815260206004820152601e60248201527f43616c6c6572206973206e6f7420616e2061646d696e6973747261746f720000604482015290519081900360640190fd5b6005546106ea57610743565b6106f683600554611158565b600554604080516001600160a01b0386168152602081019290925280517fe6646aed3b0543182f7396de55e4a49dfbddb4e684eece060fbaa5b03ff275149281900390910190a160006005555b505050565b60025481565b8080610758611143565b11156107a1576040805162461bcd60e51b8152602060048201526013602482015272151c985b9cd858dd1a5bdb88195e1c1a5c9959606a1b604482015290519081900360640190fd5b6107a9611147565b806107db5750604080516c44454c45474154455f524f4c4560981b8152905190819003600d0190206107db9033610cf8565b6108165760405162461bcd60e51b81526004018080602001828103825260248152602001806118866024913960400191505060405180910390fd5b6000610820611143565b905080841061082f5783610831565b805b600381905560408051918252517f68b095021b1f40fe513109f513c66692f0b3219aee674a69f4efc57badb8201d9181900360200190a150505050565b6108766110d0565b6001600160a01b0316816001600160a01b0316146108c55760405162461bcd60e51b815260040180806020018281038252602f8152602001806118da602f913960400191505060405180910390fd5b61062e828261133f565b6205a66d81565b80806108e0611143565b1115610929576040805162461bcd60e51b8152602060048201526013602482015272151c985b9cd858dd1a5bdb88195e1c1a5c9959606a1b604482015290519081900360640190fd5b610931611147565b806109635750604080516c44454c45474154455f524f4c4560981b8152905190819003600d0190206109639033610cf8565b61099e5760405162461bcd60e51b81526004018080602001828103825260248152602001806118866024913960400191505060405180910390fd5b60048390556040805184815290517f8c4d35e54a3f2ef1134138fd8ea3daee6a3c89e10d2665996babdf70261e2c769181900360200190a1505050565b80806109e5611143565b1115610a2e576040805162461bcd60e51b8152602060048201526013602482015272151c985b9cd858dd1a5bdb88195e1c1a5c9959606a1b604482015290519081900360640190fd5b610a36611147565b610a87576040805162461bcd60e51b815260206004820152601e60248201527f43616c6c6572206973206e6f7420616e2061646d696e6973747261746f720000604482015290519081900360640190fd5b6000600160095460ff166001811115610a9c57fe5b1415610aa9575047610b3c565b600060095460ff166001811115610abc57fe5b1415610b3c57600154604080516370a0823160e01b815230600482015290516001600160a01b03909216916370a0823191602480820192602092909190829003018186803b158015610b0d57600080fd5b505afa158015610b21573d6000803e3d6000fd5b505050506040513d6020811015610b3757600080fd5b505190505b6000610b53600554836113ae90919063ffffffff16565b9050610b5f8582611158565b604080516001600160a01b03871681526020810183905281517f7f66376a5ef2f39ab4ee2ee6e400606624e66929dba5d82df5b14dd0070a8a87929181900390910190a15050505050565b8080610bb4611143565b1115610bfd576040805162461bcd60e51b8152602060048201526013602482015272151c985b9cd858dd1a5bdb88195e1c1a5c9959606a1b604482015290519081900360640190fd5b604080516a4f5241434c455f524f4c4560a81b8152905190819003600b019020610c279033610cf8565b610c78576040805162461bcd60e51b815260206004820152601760248201527f43616c6c6572206973206e6f7420616e206f7261636c65000000000000000000604482015290519081900360640190fd5b60068490556007805460ff191660ff8516179055610c94611143565b600881905560408051918252517f47d1a578550704475fb893bcd176030186929dfaf9c7a4cac4ddc882bd000d429181900360200190a150505050565b6000828152602081905260408120610cef908363ffffffff6113f016565b90505b92915050565b6000828152602081905260408120610cef908363ffffffff6113fc16565b8080610d20611143565b1115610d69576040805162461bcd60e51b8152602060048201526013602482015272151c985b9cd858dd1a5bdb88195e1c1a5c9959606a1b604482015290519081900360640190fd5b610d71611147565b610dc2576040805162461bcd60e51b815260206004820152601e60248201527f43616c6c6572206973206e6f7420616e2061646d696e6973747261746f720000604482015290519081900360640190fd5b610dca611143565b6002541015610e20576040805162461bcd60e51b815260206004820152601b60248201527f4561726c696573742064656c657465206e6f7420726561636865640000000000604482015290519081900360640190fd5b600060095460ff166001811115610e3357fe5b1415610f3f57600154604080516370a0823160e01b815230600482015290516000926001600160a01b0316916370a08231916024808301926020929190829003018186803b158015610e8457600080fd5b505afa158015610e98573d6000803e3d6000fd5b505050506040513d6020811015610eae57600080fd5b50516001546040805163a9059cbb60e01b81526001600160a01b03888116600483015260248201859052915193945091169163a9059cbb916044808201926020929091908290030181600087803b158015610f0857600080fd5b505af1158015610f1c573d6000803e3d6000fd5b505050506040513d6020811015610f3257600080fd5b5051610f3d57600080fd5b505b6040517f41dbff2a3f1765d729d9e0651e4a45e813fb9a45fc4dd4f99ac3aa35bbab579290600090a1826001600160a01b0316ff5b60095460ff1681565b60085490565b600081565b604080516c44454c45474154455f524f4c4560981b8152905190819003600d01902081565b60045481565b6000818152602081905260408120610cf290611411565b600082815260208190526040902060020154610fe8906105e46110d0565b6108c55760405162461bcd60e51b81526004018080602001828103825260308152602001806118aa6030913960400191505060405180910390fd5b60055481565b6001546001600160a01b031681565b60035481565b600080600061104b61141c565b5050600654600754600854919360ff9091169250565b600082820183811015610cef576040805162461bcd60e51b815260206004820152601b60248201527f536166654d6174683a206164646974696f6e206f766572666c6f770000000000604482015290519081900360640190fd5b6000610cef836001600160a01b0384166115f8565b3390565b60008281526020819052604090206110f2908263ffffffff6110bb16565b1561062e576110ff6110d0565b6001600160a01b0316816001600160a01b0316837f2f8788117e7eff1d82e926ec794901d17c78024a50270940304540a733656f0d60405160405180910390a45050565b4390565b60006111538133610cf8565b905090565b6001600160a01b0382166111ac576040805162461bcd60e51b8152602060048201526016602482015275546172676574206973207a65726f206164647265737360501b604482015290519081900360640190fd5b600160095460ff1660018111156111bf57fe5b1415611201576040516001600160a01b0383169082156108fc029083906000818181858888f193505050501580156111fb573d6000803e3d6000fd5b5061062e565b600060095460ff16600181111561121457fe5b14156112f2576001546040805163a9059cbb60e01b81526001600160a01b038581166004830152602482018590529151919092169163a9059cbb9160448083019260209291908290030181600087803b15801561127057600080fd5b505af1158015611284573d6000803e3d6000fd5b505050506040513d602081101561129a57600080fd5b50516112ed576040805162461bcd60e51b815260206004820181905260248201527f496e737566662e204645542066756e6473206f6e20636f6e74722e2061646472604482015290519081900360640190fd5b61062e565b6040805162461bcd60e51b815260206004820181905260248201527f556e657870656374656420636f6e7472616374206665652063757272656e6379604482015290519081900360640190fd5b600082815260208190526040902061135d908263ffffffff61164216565b1561062e5761136a6110d0565b6001600160a01b0316816001600160a01b0316837ff6391f5c32d9c69d2a47ea670b442974b53935d1edc7fd64eb21e047a839171b60405160405180910390a45050565b6000610cef83836040518060400160405280601e81526020017f536166654d6174683a207375627472616374696f6e206f766572666c6f770000815250611657565b6000610cef83836116ee565b6000610cef836001600160a01b038416611752565b6000610cf28261176a565b600160095460ff16600181111561142f57fe5b14156114e857600454341415611444576114e3565b6004543411156114965760045433906108fc9061146890349063ffffffff6113ae16565b6040518115909202916000818181858888f19350505050158015611490573d6000803e3d6000fd5b506114e3565b6040805162461bcd60e51b815260206004820181905260248201527f496e7375662e2045544820616d6f756e742073656e742062792063616c6c6572604482015290519081900360640190fd5b6115de565b600060095460ff1660018111156114fb57fe5b14156112f25760015460048054604080516323b872dd60e01b815233938101939093523060248401526044830191909152516001600160a01b03909216916323b872dd916064808201926020929091908290030181600087803b15801561156157600080fd5b505af1158015611575573d6000803e3d6000fd5b505050506040513d602081101561158b57600080fd5b50516114e3576040805162461bcd60e51b815260206004820181905260248201527f496e7375662e2046455420616c6c6f772e206f6e2063616c6c65722061646472604482015290519081900360640190fd5b6004546005546115f39163ffffffff61106116565b600555565b60006116048383611752565b61163a57508154600181810184556000848152602080822090930184905584548482528286019093526040902091909155610cf2565b506000610cf2565b6000610cef836001600160a01b03841661176e565b600081848411156116e65760405162461bcd60e51b81526004018080602001828103825283818151815260200191508051906020019080838360005b838110156116ab578181015183820152602001611693565b50505050905090810190601f1680156116d85780820380516001836020036101000a031916815260200191505b509250505060405180910390fd5b505050900390565b815460009082106117305760405162461bcd60e51b81526004018080602001828103825260228152602001806118356022913960400191505060405180910390fd5b82600001828154811061173f57fe5b9060005260206000200154905092915050565b60009081526001919091016020526040902054151590565b5490565b6000818152600183016020526040812054801561182a57835460001980830191908101906000908790839081106117a157fe5b90600052602060002001549050808760000184815481106117be57fe5b6000918252602080832090910192909255828152600189810190925260409020908401905586548790806117ee57fe5b60019003818190600052602060002001600090559055866001016000878152602001908152602001600020600090556001945050505050610cf2565b6000915050610cf256fe456e756d657261626c655365743a20696e646578206f7574206f6620626f756e6473416363657373436f6e74726f6c3a2073656e646572206d75737420626520616e2061646d696e20746f206772616e7443616c6c6572206973206e656974686572206f776e6572206e6f722064656c6567617465416363657373436f6e74726f6c3a2073656e646572206d75737420626520616e2061646d696e20746f207265766f6b65416363657373436f6e74726f6c3a2063616e206f6e6c792072656e6f756e636520726f6c657320666f722073656c66a2646970667358221220cc47090461aca71dac0f4022e5d6bb4238845310292224f2b873ef1d2a226c1464736f6c63430006080033",
  "source": "// SPDX-License-Identifier:Apache-2.0\n//------------------------------------------------------------------------------\n//\n//   Copyright 2020 Fetch.AI Limited\n//\n//   Licensed under the Apache License, Version 2.0 (the \"License\");\n//   you may not use this file except in compliance with the License.\n//   You may obtain a copy of the License at\n//\n//       http://www.apache.org/licenses/LICENSE-2.0\n//\n//   Unless required by applicable law or agreed to in writing, software\n//   distributed under the License is distributed on an \"AS IS\" BASIS,\n//   WITHOUT WARRANTIES OR CONDITIONS OF ANY KIND, either express or implied.\n//   See the License for the specific language governing permissions and\n//   limitations under the License.\n//\n//------------------------------------------------------------------------------\n\npragma solidity ^0.6.0;\n\nimport \"../openzeppelin/contracts/token/ERC20/IERC20.sol\";\nimport \"../openzeppelin/contracts/access/AccessControl.sol\";\nimport \"../openzeppelin/contracts/math/SafeMath.sol\";\n\n\n/**\n @dev The contract *INTENTIONALLY* does not contain the `receive()` or fallback functions in order to ensure that all\n      unsolicited direct ETH transfers in to this contract (in direct Transaction) will fail.\n      Only way how to make successful fee transfer in ETH currency (*IF* contract is initialised for ETH as fee currency),\n      is to make transfer ETH to caller(client) contract and client contract then is responsible for further\n      *programmatic* (= *not* via Tx) transfer of fee to this this contract.\n */\ncontract FetchOracle is AccessControl {\n    using SafeMath for uint256;\n\n\n    enum  FeeCurrency { ERC20, ETH }\n\n    struct OracleValue {\n        uint256 value;\n        uint8 decimals;\n        uint256 updatedAtEthBlockNumber;\n    }\n\n    event FeeUpdated(uint256 fee);\n    event Pause(uint256 sinceBlock);\n    event ExcessTokenWithdrawal(address targetAddress, uint256 amount);\n    event AccruedFeesWithdrawal(address targetAddress, uint256 amount);\n    event ContractDeleted();\n    event OracleValueUpdated(uint256 atBlock); \n\n\n    bytes32 public constant ORACLE_ROLE = keccak256(\"ORACLE_ROLE\");\n    bytes32 public constant DELEGATE_ROLE = keccak256(\"DELEGATE_ROLE\");\n    uint256 public constant DELETE_PROTECTION_PERIOD = 370285;// 60*24*60*60[s] / (14[s/block]) = 370285[block];\n\n    IERC20 public _token;\n    uint256 public _earliestDelete;\n    uint256 public _pausedSinceBlock;\n    uint256 public _fee;\n    uint256 public _accruedFeesAmount;\n    OracleValue private _oracleValue;\n    FeeCurrency public _feeCurrency;\n\n    function _isOwner() internal view returns(bool) {\n        return hasRole(DEFAULT_ADMIN_ROLE, msg.sender);\n    }\n\n    /* Only callable by owner */\n    modifier onlyOwner() {\n        require(_isOwner(), \"Caller is not an administrator\");\n        _;\n    }\n\n    /* Only callable by owner or delegate */\n    modifier onlyDelegate() {\n        require(_isOwner() || hasRole(DELEGATE_ROLE, msg.sender), \"Caller is neither owner nor delegate\");\n        _;\n    }\n\n    /* Only callable by oracle */\n    modifier onlyOracle() {\n        require(hasRole(ORACLE_ROLE, msg.sender), \"Caller is not an oracle\");\n        _;\n    }\n\n    modifier verifyTxExpiration(uint256 expirationBlock) {\n        require(_getBlockNumber() <= expirationBlock, \"Transaction expired\");\n        _;\n    }\n\n    modifier verifyNotPaused() {\n        require(_pausedSinceBlock > _getBlockNumber(), \"Contract has been paused\");\n        _;\n    }\n\n\n    /*******************\n    Contract start\n    *******************/\n    /**\n     * @param ERC20Address address of the ERC20 contract\n     */\n    constructor(address ERC20Address, uint256 initialFee) public {\n        _setupRole(DEFAULT_ADMIN_ROLE, msg.sender);\n\n        if (ERC20Address == address(0)) {\n            _feeCurrency = FeeCurrency.ETH;\n        } else {\n            _feeCurrency = FeeCurrency.ERC20;\n            _token = IERC20(ERC20Address);\n        }\n\n        _earliestDelete = _getBlockNumber().add(DELETE_PROTECTION_PERIOD);\n        _pausedSinceBlock = ~uint256(0);\n        _fee = initialFee;\n    }\n\n\n    function updateOracleValue(\n        uint256 value,\n        uint8 decimals,\n        uint256 txExpirationBlock\n        )\n        external\n        verifyTxExpiration(txExpirationBlock)\n        onlyOracle\n    {\n        _oracleValue.value = value;\n        _oracleValue.decimals = decimals;\n        _oracleValue.updatedAtEthBlockNumber = _getBlockNumber();\n        emit OracleValueUpdated(_oracleValue.updatedAtEthBlockNumber); \n    }\n\n\n    function queryOracleValue()\n        public payable\n        returns (uint256 value, uint8 decimals, uint256 updatedAtEthBlockNumber)\n    {\n        _withdrawFee();\n        value = _oracleValue.value;\n        decimals = _oracleValue.decimals;\n        updatedAtEthBlockNumber = _oracleValue.updatedAtEthBlockNumber;\n    }\n\n\n    /**\n     * @dev Pause the non-administrative interaction with the contract\n     * @param fee - value of fee\n     * @param txExpirationBlock - block number defined by Tx sender beyond which transaction becomes invalid\n     * @dev Owners only\n     */\n    function setFee(uint256 fee, uint256 txExpirationBlock)\n        external\n        verifyTxExpiration(txExpirationBlock)\n        onlyDelegate\n    {\n        _fee = fee;\n        emit FeeUpdated(_fee);\n    }\n\n\n    /**\n     * @dev Pause the non-administrative interaction with the contract\n     * @param block_number disallow non-admin. interactions with contract for a _getBlockNumber() >= block_number\n     * @dev Owners only\n     */\n    function pauseSince(uint256 block_number, uint256 txExpirationBlock)\n        external\n        verifyTxExpiration(txExpirationBlock)\n        onlyDelegate\n    {\n        uint256 curr_block_number = _getBlockNumber();\n        _pausedSinceBlock = block_number < curr_block_number ? curr_block_number : block_number;\n        emit Pause(_pausedSinceBlock);\n    }\n\n\n    /**\n     * @dev Withdraw whole balance of all fees accrued in the contract so far.\n     * @param targetAddress : address to send tokens to\n     * @param txExpirationBlock : block number until which is the transaction valid (inclusive).\n     *                            When transaction is processed after this block, it fails.\n     * @dev Owners only\n     */\n    function withdrawAccruedFees(address payable targetAddress, uint256 txExpirationBlock)\n        external\n        verifyTxExpiration(txExpirationBlock)\n        onlyOwner\n    {\n        if (_accruedFeesAmount == 0) {\n            return;\n        }\n\n        // The following method will revert in the case of issue (e.g. not enough balance for transfer, zero address):\n        _withdrawFromContract(targetAddress, _accruedFeesAmount);\n\n        emit AccruedFeesWithdrawal(targetAddress, _accruedFeesAmount);\n        _accruedFeesAmount = 0;\n    }\n\n\n    /**\n     * @dev Withdraw \"excess\" tokens, which were sent to contract address directly via direct ERC20 transfer(...) or transferFrom(...),\n     *      without interacting with API of this (FetchOracle) contract, what could be done only by mistake.\n     *      Thus this method is meant to be used primarily for rescue purposes, enabling withdrawal of such\n     *      \"excess\" tokens out of contract.\n     * @param targetAddress : address to send tokens to\n     * @param txExpirationBlock : block number until which is the transaction valid (inclusive).\n     *                            When transaction is processed after this block, it fails.\n     */\n    function withdrawExcessTokens(address payable targetAddress, uint256 txExpirationBlock)\n        external\n        verifyTxExpiration(txExpirationBlock)\n        onlyOwner\n    {\n        uint256 contractBalance;\n\n        if (_feeCurrency == FeeCurrency.ETH)\n        {\n            contractBalance = address(this).balance;\n        }\n        else if (_feeCurrency == FeeCurrency.ERC20) {\n            contractBalance = _token.balanceOf(address(this));\n        } // NOTE(pb): Final else{...} is not necessary since it is checked in the `_withdrawFromContract(...)` call bellow\n\n        // NOTE(pb): The following subtraction shall *fail* (revert) IF the contract is in *INCONSISTENT* state,\n        //           = when contract balance is less than minial expected balance:\n        uint256 excessAmount = contractBalance.sub(_accruedFeesAmount);\n        _withdrawFromContract(targetAddress, excessAmount);\n        emit ExcessTokenWithdrawal(targetAddress, excessAmount);\n    }\n\n\n    /**\n     * @dev Delete the contract, transfers the remaining token and ether balance to the specified\n       payoutAddress\n     * @param payoutAddress address to transfer the balances to. Ensure that this is able to handle ERC20 tokens\n     * @dev owner only + only on or after `_earliestDelete` block\n     */\n    function deleteContract(address payable payoutAddress, uint256 txExpirationBlock)\n        external\n        verifyTxExpiration(txExpirationBlock)\n        onlyOwner\n    {\n        require(_earliestDelete >= _getBlockNumber(), \"Earliest delete not reached\");\n        if (_feeCurrency == FeeCurrency.ERC20) {\n            uint256 contractBalance = _token.balanceOf(address(this));\n            require(_token.transfer(payoutAddress, contractBalance));\n        }\n        emit ContractDeleted();\n        // The selfdestruct, by design, transfers *whole* ETH balance from this contract to targetAddress:\n        selfdestruct(payoutAddress);\n    }\n\n\n    function oracleValueLastUpdated() external view returns(uint256)\n    {\n        return _oracleValue.updatedAtEthBlockNumber;\n    }\n\n    function _getBlockNumber() internal view virtual returns(uint256)\n    {\n        return block.number;\n    }\n\n\n    /**\n     * @dev Withdraw fee from the caller.\n     */\n    function _withdrawFee() internal\n    {\n        if (_feeCurrency == FeeCurrency.ETH)\n        {\n           if (msg.value == _fee)\n           {\n               // No action necessary, since exact expected fee amount has been already transferred by caller,\n               // this this is just placeholder block to capture the logical condition.\n           }\n           else if (msg.value > _fee)\n           {\n               // Refund (back to caller) the excess caller paid on top of the expected _fee value:\n               msg.sender.transfer(msg.value.sub(_fee));\n           }\n           else\n           {\n               require(false, \"Insuf. ETH amount sent by caller\");\n           }\n        }\n        else if (_feeCurrency == FeeCurrency.ERC20)\n        {\n            require(_token.transferFrom(msg.sender, address(this), _fee), \"Insuf. FET allow. on caller addr\");\n        }\n        else\n        {\n            require(false, \"Unexpected contract fee currency\");\n        }\n\n        _accruedFeesAmount = _accruedFeesAmount.add(_fee);\n    }\n\n\n    function _withdrawFromContract(address payable targetAddress, uint256 amount) internal\n    {\n        require(targetAddress != address(0), \"Target is zero address\");\n\n        if (_feeCurrency == FeeCurrency.ETH)\n        {\n            // NOTE(pb): The following transfer shall *fail* with revert IF contract balance is insufficient for transfer\n            targetAddress.transfer(amount);\n        }\n        else if (_feeCurrency == FeeCurrency.ERC20)\n        {\n            // NOTE(pb): The following transfer shall *fail* with revert IF contract balance is insufficient for transfer\n            require(_token.transfer(targetAddress, amount), \"Insuff. FET funds on contr. addr\");\n        }\n        else\n        {\n            require(false, \"Unexpected contract fee currency\");\n        }\n    }\n}\n",
  "sourcePath": "/home/james/Code/cosmos-drb-oracle/ethereum/contracts/FetchOracle.sol",
  "compiler": {
    "name": "solc",
    "version": "0.6.8+commit.0bbfe453.Emscripten.clang"
  },
  "schemaVersion": "3.0.23",
  "updatedAt": "2020-11-17T14:40:20.557Z",
  "devdoc": {
    "details": "The contract *INTENTIONALLY* does not contain the `receive()` or fallback functions in order to ensure that all unsolicited direct ETH transfers in to this contract (in direct Transaction) will fail. Only way how to make successful fee transfer in ETH currency (*IF* contract is initialised for ETH as fee currency), is to make transfer ETH to caller(client) contract and client contract then is responsible for further rogrammatic* (= *not* via Tx) transfer of fee to this this contract.",
    "methods": {
      "constructor": {
        "params": {
          "ERC20Address": "address of the ERC20 contract"
        }
      },
      "deleteContract(address,uint256)": {
        "details": "Delete the contract, transfers the remaining token and ether balance to the specified payoutAddressowner only + only on or after `_earliestDelete` block",
        "params": {
          "payoutAddress": "address to transfer the balances to. Ensure that this is able to handle ERC20 tokens"
        }
      },
      "getRoleAdmin(bytes32)": {
        "details": "Returns the admin role that controls `role`. See {grantRole} and {revokeRole}.     * To change a role's admin, use {_setRoleAdmin}."
      },
      "getRoleMember(bytes32,uint256)": {
        "details": "Returns one of the accounts that have `role`. `index` must be a value between 0 and {getRoleMemberCount}, non-inclusive.     * Role bearers are not sorted in any particular way, and their ordering may change at any point.     * WARNING: When using {getRoleMember} and {getRoleMemberCount}, make sure you perform all queries on the same block. See the following https://forum.openzeppelin.com/t/iterating-over-elements-on-enumerableset-in-openzeppelin-contracts/2296[forum post] for more information."
      },
      "getRoleMemberCount(bytes32)": {
        "details": "Returns the number of accounts that have `role`. Can be used together with {getRoleMember} to enumerate all bearers of a role."
      },
      "grantRole(bytes32,address)": {
        "details": "Grants `role` to `account`.     * If `account` had not been already granted `role`, emits a {RoleGranted} event.     * Requirements:     * - the caller must have ``role``'s admin role."
      },
      "hasRole(bytes32,address)": {
        "details": "Returns `true` if `account` has been granted `role`."
      },
      "pauseSince(uint256,uint256)": {
        "details": "Pause the non-administrative interaction with the contractOwners only",
        "params": {
          "block_number": "disallow non-admin. interactions with contract for a _getBlockNumber() >= block_number"
        }
      },
      "renounceRole(bytes32,address)": {
        "details": "Revokes `role` from the calling account.     * Roles are often managed via {grantRole} and {revokeRole}: this function's purpose is to provide a mechanism for accounts to lose their privileges if they are compromised (such as when a trusted device is misplaced).     * If the calling account had been granted `role`, emits a {RoleRevoked} event.     * Requirements:     * - the caller must be `account`."
      },
      "revokeRole(bytes32,address)": {
        "details": "Revokes `role` from `account`.     * If `account` had been granted `role`, emits a {RoleRevoked} event.     * Requirements:     * - the caller must have ``role``'s admin role."
      },
      "setFee(uint256,uint256)": {
        "details": "Pause the non-administrative interaction with the contractOwners only",
        "params": {
          "fee": "- value of fee",
          "txExpirationBlock": "- block number defined by Tx sender beyond which transaction becomes invalid"
        }
      },
      "withdrawAccruedFees(address,uint256)": {
        "details": "Withdraw whole balance of all fees accrued in the contract so far.Owners only",
        "params": {
          "targetAddress": ": address to send tokens to",
          "txExpirationBlock": ": block number until which is the transaction valid (inclusive).                           When transaction is processed after this block, it fails."
        }
      },
      "withdrawExcessTokens(address,uint256)": {
        "details": "Withdraw \"excess\" tokens, which were sent to contract address directly via direct ERC20 transfer(...) or transferFrom(...),     without interacting with API of this (FetchOracle) contract, what could be done only by mistake.     Thus this method is meant to be used primarily for rescue purposes, enabling withdrawal of such     \"excess\" tokens out of contract.",
        "params": {
          "targetAddress": ": address to send tokens to",
          "txExpirationBlock": ": block number until which is the transaction valid (inclusive).                           When transaction is processed after this block, it fails."
        }
      }
    }
  },
  "userdoc": {
    "methods": {}
  }
}